:020000040800F2
:10000000900400200101000829230008111A0008AB
:10001000252300086D010008B1240008000000003D
:10002000000000000000000000000000DD230008C8
:1000300071010008000000009D230008352400081D
:100040001B0100081B0100081B0100081B01000820
:100050001B0100081B0100081B0100081B01000810
:100060001B0100081B0100081B0100081B01000800
:100070001B0100081B0100081B0100081B010008F0
:100080001B0100081B0100081B0100081B010008E0
:100090001B0100081B0100081B0100081B010008D0
:1000A0001B0100081B0100081B0100081B010008C0
:1000B0001B0100081B0100081B0100081B010008B0
:1000C0001B0100081B0100081B0100081B010008A0
:1000D0001B0100081B0100081B0100081B01000890
:1000E0001B0100081B0100081B010008DFF80CD0F1
:1000F00000F02AF8004800473D2500089004002041
:100100000648804706480047FEE7FEE7FEE7FEE7B1
:10011000FEE7FEE7FEE7FEE7FEE7FEE7AD240008A8
:10012000ED000008D2B201E000F8012B491EFBD21D
:1001300070470022F6E710B513460A4604461946F2
:10014000FFF7F0FF204610BD064C074D06E0E068C3
:1001500040F0010394E8070098471034AC42F6D30E
:10016000FFF7C8FFA8250008C8250008FFE7FEE73D
:100170007047000081B0EFF3108072B60090FFE787
:10018000FEE7000080B584B0039000F0B5F902905E
:100190000398019001980130002809D0FFE740F250
:1001A0000400C2F200000068019908440190FFE7D2
:1001B000FFE700F0A1F90299401A0199884201D2A3
:1001C000FFE7F6E704B080BD90B00F900E910020DD
:1001D0000D900990FFE70E9800680D99C84000281F
:1001E00000F08781FFE70D98012101FA00F00C90E3
:1001F0000E9800680C9908400B900B980C99884257
:1002000040F07381FFE70E9840680028059051D0B8
:10021000FFE7059801283AD0FFE7059802283FD06C
:10022000FFE70598032860D0FFE70598112832D032
:10023000FFE70598122838D0FFE70020C1F211002F
:100240000599814236D0FFE70020C1F212000599DE
:1002500081422FD0FFE70020C1F2210005998142A1
:1002600028D0FFE70020C1F222000599814221D069
:10027000FFE70020C1F23100059981421AD0FFE763
:100280000020C1F232000599814213D030E00E986F
:10029000C06809902DE00E98C0680430099028E0ED
:1002A0000E98C0680830099023E00E98C0680C30A2
:1002B00009901EE00E988068002803D1FFE7042013
:1002C000099011E00E988068012806D1FFE7082008
:1002D00009900C980F99086105E0082009900C9886
:1002E0000F994861FFE7FFE703E00020099000E075
:1002F000FFE70B98FF2803D8FFE70F98049003E06F
:100300000F9804300490FFE7049808900B98FF289A
:1003100004D8FFE70D988000039006E00D986FF079
:100320001F0101EB80000390FFE7039807900898F6
:10033000006807990F228A409043099A02FA01F156
:100340000843089908600E98C079C006002840F15B
:10035000CB80FFE7FFE741F21800C4F2020001681A
:1003600041F001010160006800F00100069006986C
:10037000FFE70D9820F003000821C4F20101405866
:100380000A900D9800F0030080000F2101FA00F0A0
:100390000A9921EA00000A900F9840F60001C4F281
:1003A0000101884203D1FFE70020029026E00F9868
:1003B00040F60041C4F20101884203D1FFE7012069
:1003C000019018E00F9841F20001C4F20101884247
:1003D00003D1FFE7022000900AE00F9841F20041AC
:1003E000C4F201010422884208BF03220092FFE701
:1003F00000980190FFE701980290FFE702980D999D
:1004000001F00301890088400A9908430A900A987C
:100410000D9921F003010822C4F2010288500E98C0
:100420008079C007002809D0FFE70B9840F200410F
:10043000C4F201010A681043086009E00B9840F219
:100440000041C4F201010A6822EA00000860FFE7E7
:100450000E9880798007002809D5FFE70B9840F2B5
:100460000441C4F201010A681043086009E00B98D6
:1004700040F20441C4F201010A6822EA0000086067
:10048000FFE70E988079C006002809D5FFE70B9892
:1004900040F20841C4F201010A681043086009E013
:1004A0000B9840F20841C4F201010A6822EA0000F8
:1004B0000860FFE70E9880798006002809D5FFE7DD
:1004C0000B9840F20C41C4F201010A681043086025
:1004D00009E00B9840F20C41C4F201010A6822EADB
:1004E00000000860FFE7FFE7FFE70D9801300D907F
:1004F00071E610B07047000040F28800C2F20000C0
:100500000068704781B000900098806C01B070471F
:1005100081B000900098006C01B0704780B58EB03B
:100520000C900C98002803D1FFE701200D9046E1C4
:100530000C98006C002807D1FFE70C980021C163DC
:100540000C9800F08DFCFFE70C98242101640C98B6
:100550000068016821F0010101600C9800680168E1
:1005600041F4004101600C980068016821F40041E9
:10057000016000F091FE0A900C98406848F2A0617A
:10058000C0F2010188420BD8FFE70A9848F2804187
:10059000C0F21E010022884238BF012209920AE0FF
:1005A0000A9840F60011C0F23D010022884238BF8F
:1005B00001220992FFE70998012803D1FFE70120F2
:1005C0000D90FCE00A984DF68361C4F21B31A0FB4C
:1005D0000101890C0B910C990968496821F03F01D0
:1005E0000B9A11430C9A126851600C990968096AB8
:1005F00021F03F010C9A526848F2A063C0F2010357
:100600009A42089104D8FFE70B98013007900EE05A
:100610000B984FF49671484344F6D351C1F26201EE
:10062000A0FB0101012202EB91110791FFE707985E
:10063000089908430C9A126810620C980068C06907
:100640004CF6FF7290430C9A526848F2A063C0F2D5
:1006500001039A4206901FD8FFE70A9801380C99C7
:1006600049684900B0FBF1F001306FF31F300328F7
:1006700003D8FFE7042005900BE00A9801380C9995
:1006800049684900B0FBF1F001306FF31F3005906D
:10069000FFE7059804904FE00C98806800280DD182
:1006A000FFE70A9801380C99496801EB4101B0FB5A
:1006B000F1F001306FF31F3003900DE00A9801381C
:1006C0000C99496819225143B0FBF1F00130042123
:1006D00061F31F300390FFE703980005002803D162
:1006E000FFE70120029024E00C98806800280DD1DB
:1006F000FFE70A9801380C99496801EB4101B0FB0A
:10070000F1F001306FF31F3001900DE00A980138CD
:100710000C99496819225143B0FBF1F001300421D2
:1007200061F31F300190FFE7019840F40040029010
:10073000FFE702980490FFE70498069908430C9A93
:100740001268D0610C980068006820F0C0000C9A14
:100750001368D2F81CC0126A42EA0C0210431860F7
:100760000C980068806848F2FF3290430C9A136836
:10077000D2F80CC0126942EA0C02104398600C983F
:100780000068C06820F0FF000C9A1368D2F814C00B
:10079000926942EA0C021043D8600C980068026823
:1007A00042F0010202600C98002282640C9820231F
:1007B00003640C9802630C9842640D92FFE70D9855
:1007C0000EB080BD10B594B0DDF858C09E460C4602
:1007D0000E90ADF836100C92ADF82E3000200A9035
:1007E000CDF810C0CDF80CE00294FFF785FE09901B
:1007F0000E98006C202840F02B82FFE70E98099994
:100800006A4611600221C0F210010122192301F091
:10081000D1FA002803D0FFE702200F901BE2FFE788
:100820000E98C06B012803D1FFE702200F9012E25F
:100830000E980121C163FFE7FFE70E98006800688A
:10084000C007002807D1FFE70E980068016841F053
:1008500001010160FFE70E980068016821F4006162
:1008600001600E98222101640E98102141640E98B7
:10087000002181640C980E994862BDF82E000E99F3
:1008800048850E98408D0E9908850E980021CFF668
:10089000FF71C1620E98BDF83610169A099B01F0DF
:1008A000E5F8002803D0FFE701200F90D3E10E9870
:1008B000008D002814D1FFE7FFE7002008900E9874
:1008C0000068406908900E98006880690890089850
:1008D000FFE70E980068016841F4007101605DE077
:1008E0000E98008D01281FD1FFE70E98006801685F
:1008F00021F480610160EFF3108072B61090FFE781
:10090000002007900E980068406907900E980068D4
:10091000806907900798FFE70E980068016841F426
:100920000071016062B638E00E98008D02281FD178
:10093000FFE70E980068016841F400610160EFF381
:10094000108072B61190FFE7002006900E980068A4
:10095000406906900E980068806906900698FFE747
:100960000E980068016821F48061016062B613E0AE
:100970000E980068016841F480610160FFE7002083
:1009800005900E980068406905900E98006880698F
:1009900005900598FFE7FFE7FFE7FFE7FFE70E9801
:1009A000008D002800F04681FFE70E98008D032897
:1009B00000F20481FFE70E98008D01281ED1FFE7A9
:1009C0000E981699099A01F0CFFA002803D0FFE794
:1009D00001200F903FE10E98006800690E99496A66
:1009E00008700E98416A013141620E98018D0139FB
:1009F00001850E98418D01394185DEE00E98008D0C
:100A0000022841D1FFE70E98169B09996A461160AA
:100A10000421C0F20101002201F0CCF9002803D02A
:100A2000FFE701200F9016E1EFF3108072B61290ED
:100A30000E980068016841F4007101600E9800682A
:100A400000690E99496A08700E98416A0131416245
:100A50000E98018D013901850E98418D013941852E
:100A600062B60E98006800690E99496A08700E987F
:100A7000416A013141620E98018D013901850E985C
:100A8000418D0139418597E00E98169B09996A4678
:100A900011600421C0F20101002201F08BF900284D
:100AA00003D0FFE701200F90D5E00E9800680168A1
:100AB00021F480610160EFF3108072B613900E98FC
:100AC000006800690E99496A08700E98416A013100
:100AD00041620E98018D013901850E98418D0139D1
:100AE000418540F20000C2F20000006848F21F5148
:100AF000C5F2EB11A0FB0101C90844F6D352C1F2C3
:100B00006202A1FB0212920923235A430A92FFE7D1
:100B10000A9801380A900A98002816D1FFE70E9823
:100B2000002101630E98202202640E9841640E9801
:100B3000816C41F02001816462B6FFE70E980021CC
:100B4000C163FFE701200F9085E0FFE70E98006882
:100B5000406900F004000021B1EB900FD8D0FFE70E
:100B60000E980068016841F4007101600E980068F9
:100B700000690E99496A08700E98416A0131416214
:100B80000E98018D013901850E98418D01394185FD
:100B900062B60E98006800690E99496A08700E984E
:100BA000416A013141620E98018D013901850E982B
:100BB000418D01394185FFE7FFE73AE00E9816992C
:100BC000099A01F0D1F9002803D0FFE701200F9026
:100BD00041E00E98006800690E99496A08700E9805
:100BE000416A013141620E98018D013901850E98EB
:100BF000418D013941850E980068406900F004007C
:100C00000121B1EB900F13D1FFE70E980068006946
:100C10000E99496A08700E98416A013141620E9836
:100C2000018D013901850E98418D01394185FFE71C
:100C3000FFE7B4E60E98202101640E98002141647C
:100C4000FFE70E980021C163FFE700200F9002E04C
:100C500002200F90FFE70F9814B010BD10B58CB0B4
:100C6000DDF838C09E460C460A90ADF82610089272
:100C7000ADF81E30CDF810C0CDF80CE00294FFF7AF
:100C80003BFC06900A98006C202840F0E280FFE7C9
:100C90000A9806996A4611600221C0F210010122E9
:100CA000192301F087F8002803D0FFE702200B90FA
:100CB000D2E0FFE70A98C06B012803D1FFE70220CA
:100CC0000B90C9E00A980121C163FFE7FFE70A988A
:100CD00000680068C007002807D1FFE70A9800688D
:100CE000016841F001010160FFE70A9800680168AE
:100CF00021F4006101600A98212101640A98102101
:100D000041640A980021816408980A994862BDF8F4
:100D10001E000A9948850A98408D0A9908850A9804
:100D20000021CFF6FF71C1620A98BDF826100E9A15
:100D3000069B00F06FFF002803D0FFE701200B9017
:100D40008AE0FFE7002005900A9800684069059056
:100D50000A980068806905900598FFE7FFE70A9800
:100D6000008D002861D0FFE70A980E99069A01F0DD
:100D700055F900280FD0FFE70A98806C042807D1A6
:100D8000FFE70A980068016841F400710160FFE71D
:100D900001200B9060E00A980168406A00780861C1
:100DA0000A98416A013141620A98418D01394185B1
:100DB0000A98018D013901850A980068406900F0A0
:100DC00004000121B1EB900F17D1FFE70A98008DC5
:100DD000002812D0FFE70A980168406A007808618D
:100DE0000A98416A013141620A98418D0139418571
:100DF0000A98018D01390185FFE70A980E99069A34
:100E000000F090FF00280FD0FFE70A98806C0428BC
:100E100007D1FFE70A980068016841F4007101609A
:100E2000FFE701200B9017E099E70A980068016836
:100E300041F4007101600A98202101640A980021A0
:100E40004164FFE70A980021C163FFE700200B908F
:100E500002E002200B90FFE70B980CB010BD0000E1
:100E600080B588B00790002006900590049003900C
:100E70000798006845F20041C4F2000188422CD175
:100E8000FFE7FFE741F21800C4F20200016841F0F9
:100E900008010160006800F0080002900298FFE776
:100EA000C0200390122004900320069040F60040DA
:100EB000C4F2010003A9FFF787F9FFE741F21C0024
:100EC000C4F20200016841F400110160006800F4FE
:100ED000001001900198FFE7FFE708B080BD000017
:100EE00040F20400C2F20000006840F28801C2F241
:100EF00000010A68104408607047000080B582B0A5
:100F000042F20000C4F20200016841F010010160E9
:100F1000032000F08FF80020019000F007F8009007
:100F200000F03AF8019802B080BD000080B582B0B0
:100F3000009040F20000C2F20000006840F204019C
:100F4000C2F2000109684FF47A72B2FBF1F1B0FB12
:100F5000F1F000F055FD002803D0FFE701200190DB
:100F600016E000980F280DD8FFE700994FF0FF30EA
:100F7000002200F043F8009840F20801C2F200019C
:100F8000086002E00120019002E000200190FFE7EC
:100F9000019802B080BD000083B0FFE741F2180065
:100FA000C4F20200016841F001010160006800F034
:100FB000010002900298FFE7FFE741F21C00C4F233
:100FC0000200016841F080510160006800F080502B
:100FD00001900198FFE7FFE70420C4F201000168D7
:100FE0000091009921F0E0610091009941F00071B9
:100FF000009100990160FFE703B0704780B586B0AB
:101000000590049103920020029001F053FA02909F
:1010100005980299049A039B0190084611461A46C6
:1010200001F084F9019900900846009901F04AFA0C
:1010300006B080BD80B582B00190019801F060FAE1
:1010400002B080BD80B584B0029001910298002862
:1010500003D1FFE70120039014E1019842F200015F
:10106000C4F20201096801F00701884215D9FFE7BF
:1010700042F20000C4F20200016821F00701019A67
:1010800011430160006800F007000199884203D015
:10109000FFE701200390F5E0FFE702980078800762
:1010A00000282AD5FFE7029800784007002809D5D4
:1010B000FFE741F20400C4F20200016841F4E0617C
:1010C0000160FFE7029800780007002809D5FFE7D4
:1010D00041F20400C4F20200016841F46051016071
:1010E000FFE741F20400C4F20200016821F0F001C0
:1010F000029A926811430160FFE702980078C007E6
:1011000000285CD0FFE70298406801280DD1FFE776
:1011100041F20000C4F2020000688003002803D4FA
:10112000FFE701200390ADE01FE00298406802282D
:101130000DD1FFE741F20000C4F202000068800117
:10114000002803D4FFE7012003909BE00CE041F26C
:101150000000C4F2020000688007002803D4FFE703
:10116000012003908EE0FFE7FFE741F20400C4F2A4
:101170000200016821F00301029A526811430160E4
:10118000FFF7BAF90090FFE741F20400C4F2020051
:10119000006800F00C0002994968B0EB810F0DD097
:1011A000FFE7FFF7A9F90099401A41F28931884217
:1011B00003D3FFE70320039064E0E5E7FFE701982E
:1011C00042F20001C4F20201096801F007018842FD
:1011D00015D2FFE742F20000C4F20200016821F0DC
:1011E0000701019A11430160006800F007000199AE
:1011F000884203D0FFE70120039043E0FFE7029815
:101200000078400700280CD5FFE741F20400C4F243
:101210000200016821F4E061029AD2681143016082
:10122000FFE702980078000700280DD5FFE741F29C
:101230000400C4F20200016821F46051029A1269AC
:1012400041EAC2010160FFE700F038F841F2040111
:10125000C4F202010968C9B2090942F28E52C0F60D
:101260000002515CC84040F20001C2F20001086077
:1012700040F20800C2F200000068FFF757FE0021AC
:101280000391FFE7039804B080BD000040F2000026
:10129000C2F200000068704780B5FFF7F7FF41F227
:1012A0000401C4F202010968C1F3022142F29E5214
:1012B000C0F60002515CC84080BD00008BB040F613
:1012C0000E70C1F210000A9040F60A30C0F60C50C1
:1012D000099040F20670C0F60810089040F2023003
:1012E000C0F20450079040F20120ADF81A0000202F
:1012F0000590049003900290019041F20400C4F222
:10130000020000680590059800F00C0001460028D6
:1013100000913DD0FFE70098042804D0FFE7009833
:10132000082806D035E041F20020C0F27A00019092
:1013300035E00598C0F3834007A9085C02909DF84A
:101340001600C007002818D0FFE741F20400C4F2DD
:101350000200006800F400300DF11A0141EA50402B
:1013600000780490029841F20021C0F27A014843CB
:101370000499B0FBF1F0039007E0029840F60011E9
:10138000C0F23D0148430390FFE70398019006E057
:10139000FFE741F20020C0F27A000190FFE70198D8
:1013A0000BB0704780B586B004900498002803D134
:1013B000FFE70120059020E304980078C00700288B
:1013C00000F0AE80FFE741F20400C4F202000068C2
:1013D00000F00C00042813D0FFE741F20400C4F22F
:1013E0000200006800F00C0008281BD1FFE741F262
:1013F0000400C4F202000068C003002812D5FFE711
:1014000041F20000C4F2020000688003002808D501
:10141000FFE704984068002803D1FFE7012005900A
:10142000EBE27CE0FFE704984068B0F5803F09D12B
:10143000FFE741F20000C4F20200016841F480318C
:10144000016033E00498406800280DD1FFE741F2C5
:101450000000C4F20200016821F4803101600168DB
:1014600021F48021016020E004984068B0F5A02FAD
:101470000DD1FFE741F20000C4F20200016841F41F
:1014800080210160016841F4803101600CE041F28B
:101490000000C4F20200016821F48031016001689B
:1014A00021F480210160FFE7FFE7FFE7FFE70498F1
:1014B0004068002819D0FFE7FFF71EF80390FFE708
:1014C00041F20000C4F202000068800300280BD43F
:1014D000FFE7FFF711F80399401A652803D3FFE7E8
:1014E0000320059089E2EBE718E0FFF705F8039089
:1014F000FFE741F20000C4F2020000688003002808
:101500000BD5FFE7FEF7F8FF0399401A652803D3D0
:10151000FFE70320059070E2EBE7FFE7FFE7FFE757
:10152000049800788007002840F18B80FFE741F2A3
:101530000400C4F20200006810F00C0F13D0FFE7A3
:1015400041F20400C4F20200006800F00C00082818
:1015500028D1FFE741F20400C4F202000068C00392
:1015600000281FD4FFE741F20000C4F20200006827
:101570008007002808D5FFE704980069012803D0F8
:10158000FFE70120059038E241F20000C4F20200BA
:10159000016821F0F801049A526941EAC201016030
:1015A000FFE74DE00498006900282AD0FFE70020FB
:1015B000C4F2422001210160FEF79EFF0390FFE785
:1015C00041F20000C4F202000068800700280BD43A
:1015D000FFE7FEF791FF0399401A032803D3FFE7C3
:1015E0000320059009E2EBE741F20000C4F202009B
:1015F000016821F0F801049A526941EAC2010160D0
:101600001DE00020C4F2422000210160FEF774FFBB
:101610000390FFE741F20000C4F202000068800777
:1016200000280BD5FFE7FEF767FF0399401A032850
:1016300003D3FFE703200590DFE1EBE7FFE7FFE7D8
:10164000FFE7049800780007002847D5FFE70498D3
:101650008069002822D0FFE740F28040C4F2422097
:1016600001210160FEF748FF0390FFE741F22400EB
:10167000C4F202000068800700280BD4FFE7FEF7E1
:101680003BFF0399401A032803D3FFE7032005908B
:10169000B3E1EBE7012000F083FE1EE040F2804062
:1016A000C4F2422000210160FEF726FF0390FFE70D
:1016B00041F22400C4F202000068800700280BD524
:1016C000FFE7FEF719FF0399401A032803D3FFE74A
:1016D0000320059091E1EBE7FFE7FFE7049800782E
:1016E0004007002840F1D480FFE70020019041F23C
:1016F0001C00C4F202000068C000002812D4FFE7FA
:10170000FFE741F21C00C4F20200016841F0805181
:101710000160006800F0805000900098FFE7012011
:101720000190FFE747F20000C4F200000068C00526
:10173000002821D4FFE747F20000C4F2000001684E
:1017400041F480710160FEF7D7FE0390FFE747F296
:101750000000C4F200000068C00500280BD4FFE7B9
:10176000FEF7CAFE0399401A652803D3FFE703205A
:10177000059042E1EBE7FFE7FFE70498C068012826
:1017800009D1FFE741F22000C4F20200016841F0F4
:101790000101016032E00498C06800280DD1FFE724
:1017A00041F22000C4F20200016821F00101016051
:1017B000016821F0040101601FE00498C068052859
:1017C0000DD1FFE741F22000C4F20200016841F0B0
:1017D00004010160016841F0010101600CE041F287
:1017E0002000C4F20200016821F0010101600168DB
:1017F00021F004010160FFE7FFE7FFE7FFE704983E
:10180000C06800281BD0FFE7FEF776FE0390FFE7D5
:1018100041F22000C4F202000068800700280DD4C5
:10182000FFE7FEF769FE0399401A41F289318842C9
:1018300003D3FFE703200590DFE0E9E71AE0FEF7B6
:101840005BFE0390FFE741F22000C4F20200006853
:10185000800700280DD5FFE7FEF74EFE0399401ADA
:1018600041F28931884203D3FFE703200590C4E0A9
:10187000E9E7FFE70198012809D1FFE741F21C00E1
:10188000C4F20200016821F080510160FFE7FFE728
:101890000498C069002800F0AD80FFE741F2040021
:1018A000C4F20200006800F00C0008287ED0FFE7B8
:1018B0000498C06902285AD1FFE76020C4F2422090
:1018C00000210160FEF718FE0390FFE741F20000DF
:1018D000C4F202000068800100280BD5FFE7FEF784
:1018E0000BFE0399401A032803D3FFE7032005905A
:1018F00083E0EBE70498006AB0F5803F0CD1FFE786
:1019000041F20400C4F20200016821F40031049A9B
:10191000926811430160FFE741F20400C4F2020043
:10192000016821F47411049A136A526A1A4311432C
:1019300001606020C4F2422001210160FEF7DCFD5D
:101940000390FFE741F20000C4F20200006880014A
:1019500000280BD4FFE7FEF7CFFD0399401A0328B8
:1019600003D3FFE70320059047E0EBE71DE060208D
:10197000C4F2422000210160FEF7BEFD0390FFE7A4
:1019800041F20000C4F202000068800100280BD57B
:10199000FFE7FEF7B1FD0399401A032803D3FFE7E1
:1019A0000320059029E0EBE7FFE722E00498C069F7
:1019B000012803D1FFE7012005901EE041F2040059
:1019C000C4F2020000680290029800F4803004998A
:1019D000096A884208D1FFE7029800F47010049960
:1019E000496A884203D0FFE70120059005E0FFE740
:1019F000FFE7FFE700200590FFE7059806B080BDF0
:101A000080B582B00190019800F0EAFC02B080BD80
:101A1000FFE7FEE782B0009000980068406900F49C
:101A200080600121B1EB902F1AD1FFE70098006888
:101A30006FF48061416100980021016300982022C9
:101A40000264009841640098816C41F00401816453
:101A5000FFE700980021C163FFE70120019002E049
:101A600000200190FFE7019802B0704780B588B070
:101A70008C460690ADF81610049203930698C06A3F
:101A8000029006980068016841F480610160029844
:101A9000082809D0FFE70298012805D0FFE702983F
:101AA00010F5803F07D1FFE706980068016841F410
:101AB000807101600DE00698006B112807D1FFE7E7
:101AC00006980068016841F48071016000E0FFE75A
:101AD000FFE70698049B03996A4611604FF00111D5
:101AE000002200F067F900280FD0FFE70698006891
:101AF0000068C005002805D5FFE706984FF400717F
:101B00008164FFE70320079081E006980069B0F543
:101B1000804F08D1FFE79DF8160040F001000699BC
:101B20000968086162E0BDF8160000F44070C00961
:101B3000F0300699096808610698049A039B082109
:101B4000C0F2010100F090F9002803D0FFE7012066
:101B500007905CE09DF816000699096808610698F0
:101B6000049A039B0221C0F2010100F07DF90028D4
:101B700003D0FFE70120079049E0FFE70020019034
:101B80000698006840690190069800688069019095
:101B90000198FFE706980068016841F480710160D0
:101BA0000698049B03996A4611604FF001110022C8
:101BB00000F000F900280FD0FFE7069800680068E1
:101BC000C005002805D5FFE706984FF40071816431
:101BD000FFE7032007901AE0BDF8160000F44070FC
:101BE000C009F130069909680861FFE70698049A70
:101BF000039B0221C0F2010100F036F9002803D056
:101C0000FFE70120079002E000200790FFE7079818
:101C100008B080BD80B588B08C460690ADF816102F
:101C2000049203930698C06A02900298082809D08B
:101C3000FFE70298012805D0FFE7029810F5803FE2
:101C400007D1FFE706980068016841F480710160E0
:101C50000DE00698006B122807D1FFE70698006890
:101C6000016841F48071016000E0FFE7FFE706983A
:101C7000049B03996A4611604FF00111002200F0A5
:101C800099F800280FD0FFE7069800680068C005A3
:101C9000002805D5FFE706984FF400718164FFE73F
:101CA000032007903BE006980069B0F5804F08D10B
:101CB000FFE7BDF8160000F0FE000699096808610C
:101CC0001CE0BDF8160000F44070C009F030069921
:101CD000096808610698049A039B0821C0F2010173
:101CE00000F0C2F8002803D0FFE70120079016E0BB
:101CF0009DF81600069909680861FFE70698049A9E
:101D0000039B0221C0F2010100F0AEF8002803D0CD
:101D1000FFE70120079002E000200790FFE7079807
:101D200008B080BD80B584B0029001910092FFE7B9
:101D300002980068406900F004000021B1EB900FA8
:101D400031D1FFE70298FFF765FE002803D0FFE7D7
:101D5000012003902AE001980130002822D0FFE7FB
:101D6000FEF7CAFB0099401A0199884204D8FFE7A0
:101D70000198002815D1FFE702980021016302981D
:101D800020220264029841640298816C41F0200193
:101D90008164FFE702980021C163FFE701200390FF
:101DA00004E0FFE7C4E700200390FFE7039804B0D6
:101DB00080BD000080B586B0DDF820C0049003919E
:101DC00002920193FFE79DF80E0001280CD1FFE776
:101DD000049800684069BDF80C100840401AB0FA39
:101DE00080F0400900900BE0049800688069BDF81D
:101DF0000C100840401AB0FA80F040090090FFE74C
:101E000000980299884228D1FFE701980130002804
:101E100022D0FFE7FEF770FB0899401A019988422B
:101E200004D8FFE70198002815D1FFE704980021A6
:101E30000163049820220264049841640498816C30
:101E400041F020018164FFE704980021C163FFE7AE
:101E50000120059004E0FFE7B5E700200590FFE7CB
:101E6000059806B080BD000080B586B0049003914F
:101E700002920193FFE79DF80E0001280CD1FFE7C5
:101E8000049800684069BDF80C100840401AB0FA88
:101E900080F0400900900BE0049800688069BDF86C
:101EA0000C100840401AB0FA80F040090090FFE79B
:101EB0000098002852D1FFE704980068406900F4B8
:101EC00080600121B1EB902F20D1FFE704980068DA
:101ED000016841F400710160049800686FF480614A
:101EE000416104980021016304982022026404984F
:101EF00041640498816C41F004018164FFE7049817
:101F00000021C163FFE7012005902AE0029801301B
:101F1000002822D0FFE7FEF7EFFA0199401A029954
:101F2000884204D8FFE70298002815D1FFE70498FB
:101F300000210163049820220264049841640498FB
:101F4000816C41F020018164FFE704980021C163A6
:101F5000FFE70120059004E0FFE78CE700200590F3
:101F6000FFE7059806B080BD80B584B0029001916E
:101F70000092FFE702980068406900F040000021ED
:101F8000B1EB901F44D1FFE702980068406900F070
:101F900010000121B1EB101F18D1FFE70298006873
:101FA0006FF0100141610298002101630298202224
:101FB0000264029841640298816C8164FFE7029890
:101FC0000021C163FFE70120039024E0FEF794FAAB
:101FD0000099401A0199884204D8FFE70198002827
:101FE00015D1FFE7029800210163029820220264C4
:101FF000029841640298816C41F020018164FFE7FE
:1020000002980021C163FFE70120039003E0B1E7DC
:1020100000200390FFE7039804B080BD80B584B032
:10202000029001910092FFE7029800684069C0B2F7
:102030000021B1EBD01F31D1FFE70298FFF7EAFC96
:10204000002803D0FFE7012003902AE00198013027
:10205000002822D0FFE7FEF74FFA0099401A0199B5
:10206000884204D8FFE70198002815D1FFE70298BD
:1020700000210163029820220264029841640298C0
:10208000816C41F020018164FFE702980021C16367
:10209000FFE70120039004E0FFE7C5E7002003907D
:1020A000FFE7039804B080BD80B588B00790682032
:1020B0003B210DF10E020E2300F06EF8002002907D
:1020C000FFE70298022818DCFFE702980DF10E01E5
:1020D00001EB40025278079B23F81020029811F878
:1020E0001010079A32F8103043EA012122F810103C
:1020F000FFE7029801300290E3E704200190FFE738
:10210000019806281CDCFFE701980DF10E0101EB98
:1021100040025278079B03EB400020F8022C019804
:1021200011F81010079A02EB400030F8022C42EA36
:10213000012120F8021CFFE7019801300190DFE740
:1021400008B080BD80B586B06B208DF811000020EE
:102150008DF8120068200DF1110102220390029106
:10216000019200F061F81B208DF8110008208DF815
:10217000120003980299019A00F056F81C208DF87D
:10218000110010208DF8120003980299019A00F0B6
:102190004BF806B080BD000010B588B09C468E4656
:1021A00004468DF81F008DF81E1006928DF817302A
:1021B0009DF81F000DF11E010122CDF810C0CDF8D1
:1021C0000CE0029400F030F8FFE79DF81F0041009A
:1021D000069A9DF8173068464FF0640CC0F800C0AE
:1021E00040F22C00C2F20000FEF7ECFA00280DD0FD
:1021F000FFE740F22C00C2F20000FEF783F904284A
:1022000003D0FFE7FDF7B6FFFFE7DEE7FFE740F2A9
:102210002C00C2F20000FEF77BF9202801D0FFE776
:10222000F5E708B010BD000080B584B013468446C1
:102230008DF80F0002918DF80720FFE79DF80F0041
:102240004100029A9DF8073068464FF0640CC0F8D0
:1022500000C040F22C00C2F20000FEF7FFFC002894
:1022600003D0FFE7FDF786FFE8E7FFE740F22C0029
:10227000C2F20000FEF74CF9202801D0FFE7F5E795
:1022800004B080BD83B0FFE741F21800C4F2020041
:10229000016841F020010160006800F02000029018
:1022A0000298FFE7FFE741F21800C4F2020001685C
:1022B00041F004010160006800F004000190019801
:1022C000FFE7FFE741F21800C4F20200016841F0A5
:1022D00008010160006800F0080000900098FFE726
:1022E00003B0704780B540F22C00C2F2000045F206
:1022F0000041C4F2000101604FF47A714160002195
:102300008160C1604FF48042026141618161C161BD
:102310000162FEF703F9002803D0FFE7FDF72AFF6B
:10232000FFE780BDFFE7FEE7FFE7FEE788B0079025
:1023300006910592079800F0070004900498C0F1F8
:102340000700052803D3FFE70420019004E0049868
:10235000C0F107000190FFE7019803900498043052
:10236000062803D8FFE70020009003E00498033814
:102370000090FFE70098029006980399012202FA64
:1023800001F10139084002998840059B02FA01F1E8
:1023900001391940084308B0704700007047000039
:1023A00082B00190019840F20001C2F20001096878
:1023B000C90844F6D352C1F26202A1FB021292098B
:1023C00050430090FFE700BFFFE70098411E0091D7
:1023D0000028F8D1FFE702B0704700007047000006
:1023E00080B582B0009000980138B0F1807F03D3AF
:1023F000FFE70120019019E0009801384EF2140126
:10240000CEF2000108604FF0FF300F2100F05AF8C3
:102410004EF21800CEF20000002101604EF21000D2
:10242000CEF20000072202600191FFE7019802B09E
:1024300080BD000080B5FEF753FD80BD80B592B031
:1024400008A828210290FDF774FE0020079006904E
:10245000059004900390012108914FF48032099275
:102460000A900C9102210F91109211900298FEF7A0
:1024700099FF002803D0FFE7FDF77CFEFFE70F2060
:10248000039002200490002005900690079003A975
:10249000019008460199FEF7D5FD002803D0FFE71B
:1024A000FDF768FEFFE712B080BD00007047000036
:1024B000FFE7FEE74EF60C50CEF200000068C0F3D6
:1024C0000220704782B0019000910198002809D441
:1024D000FFE70098000101994EF20042CEF200029F
:1024E00088540AE000980001019901F00F014EF6AE
:1024F0001452CEF200028854FFE702B07047000089
:1025000083B00290029800F0070000904EF60C5045
:10251000CEF200000168019101994FF6FF021140CF
:1025200001910199009A41EA02210022C0F2FA5277
:10253000114301910199016003B0704780B582B0E9
:1025400000200190FEF7DAFC0090FFF777FFFFF71D
:1025500099FEFFF7C7FEFFF7F5FDFFE740F2100019
:10256000C2F20000FFF7A0FD6420FDF70BFEF5E7C7
:1025700002E008C8121F08C1002AFAD1704770474C
:10258000002001E001C1121F002AFBD170470000AA
:102590000000000000000102030406070809000013
:1025A0000000010203040000C8250008000000200C
:1025B0001000000070250008D82500081000002039
:1025C00080040000802500080024F40001000000C1
:0825D0001000000000000000F3
:04000005080000ED02
:00000001FF
