:020000040800F2
:100000009004002001010008471300082110000897
:10001000451300086D010008B1130008000000003E
:100020000000000000000000000000004B1300086A
:100030006F01000800000000491300084D1300087C
:100040001B0100081B0100081B0100081B01000820
:100050001B0100081B0100081B0100081B01000810
:100060001B0100081B0100081B0100081B01000800
:100070001B0100081B0100081B0100081B010008F0
:100080001B0100081B0100081B0100081B010008E0
:100090001B0100081B0100081B0100081B010008D0
:1000A0001B0100081B0100081B0100081B010008C0
:1000B0001B0100081B0100081B0100081B010008B0
:1000C0001B0100081B0100081B0100081B010008A0
:1000D0001B0100081B0100081B0100081B01000890
:1000E0001B0100081B0100081B010008DFF80CD0F1
:1000F00000F02AF800480047B513000890040020DB
:100100000648804706480047FEE7FEE7FEE7FEE7B1
:10011000FEE7FEE7FEE7FEE7FEE7FEE7AF130008B7
:10012000ED000008D2B201E000F8012B491EFBD21D
:1001300070470022F6E710B513460A4604461946F2
:10014000FFF7F0FF204610BD064C074D06E0E068C3
:1001500040F0010394E8070098471034AC42F6D30E
:10016000FFF7C8FF80140008A0140008FEE77047DE
:10017000B0B5044600F0DEF805460548611C40684D
:1001800018BF044400F0D6F8401BA042FAD3B0BD1B
:10019000000000202DE9FC4F594A04234FF0000BCA
:1001A0004FF001084FF00F0E4FF00009002590426C
:1001B00008BF032300930B6833FA05F208BFBDE8BC
:1001C000FC8F08FA05F2134200F095804F68032F68
:1001D00016D9112F24D0122F26D04D4B9F4213D069
:1001E0004C4B9F4210D04C4B9F420DD04B4B9F42EB
:1001F0000AD04B4B9F4207D04A4B9F4204D020E08D
:10020000DFE807F00216191D8B6833B1012B14BF0C
:10021000426102614FF0080913E04FF0040910E059
:10022000CB6803F104090CE0CB6803F10C0908E08A
:10023000D1F80C9005E0CB6803F1080901E04FF01C
:1002400000095B460646082D28BF203B28BF043620
:1002500037680EFA03F409FA03F327EA0404234388
:100260003360CB79DB0646D5284C264E0BF00C0CC0
:100270002368A6F57E7643F001032360236803F02C
:10028000010301930EFA0CF3019CAC0856F824709C
:1002900027EA030A244B984208D0244B984207D0FF
:1002A000234B9842009B08BF022302E0002300E09A
:1002B000012303FA0CF343EA0A0346F82430114CF5
:1002C0004F68FB03236854BF934313432360BB036E
:1002D000636854BF934313436360FB02A36854BF36
:1002E00093431343A360084CBB02236854BF23EA23
:1002F00002021A4322600BF1040B01355BE700BFD9
:1003000000140140000401400C0401401810024098
:100310000000111000001210000021100000221037
:10032000000031100000321000080140000C0140B4
:100330000010014001480068704700BF880000209D
:10034000806C7047006C7047F8B548B30446006C89
:1003500020B90020E063204600F01EFB242020642A
:100360002068016821F001010160016841F4004149
:100370000160016821F40041016000F06BFC494913
:10038000494B0022494D88424FF0000138BF0121FE
:10039000984238BF01226368AB4238BF0A460AB1AF
:1003A0000120F8BD4249434EB0FBF1F22168B3424F
:1003B0004D6825F03F0545EA02054D600D6A25F0C0
:1003C0003F0511D8013201382A430A625A004CF61F
:1003D000FF73B0FBF2F001306FF31F30042898BFB9
:1003E0000420CA699A4337E04FF496760138724385
:1003F0004FF47A76B2FBF6F201322A434CF6FF75DF
:100400000A62CA69AA43A56845B1192604275E4352
:10041000B0FBF6F6013667F31F3606E003EB430642
:10042000B0FBF6F601366FF31F36360509D055B12D
:1004300019256B43B0FBF3F00423013063F31F3045
:1004400008E0012008E003EB4303B0FBF3F00130C8
:100450006FF31F3040F40040104304F10C06C861F4
:10046000E0690A6822F0C0021043226A104348F291
:10047000FF320860886890436CCE18431043886050
:10048000C86820F0FF0028433043C860086840F087
:100490000100086000202021A064216420636064C2
:1004A000F8BD00BF80841E0000093D00A186010048
:1004B00040420F00A08601002DE9FE4F04460020B7
:1004C0001D4617468B460190FFF734FF8146206C8E
:1004D00020280DD1CB4E204601221923CDF80090C3
:1004E00006F5702100F0D5FD10B9E06B012802D1AE
:1004F0000220BDE8FE8F0120E06320680168C90783
:1005000003D1016841F0010101600168A6F1021206
:10051000DDF8308021F40061016022212164102186
:1005200061640021A16465853546618DE262676280
:100530002185E16A026842F4806211F5803F026021
:1005400018BF01293AD1016841F480710160204649
:100550004FF0011100224346CDF8009000F099FDC4
:1005600048B120680068C00544BF4FF40070A06423
:100570000120BDE8FE8F2069B0F5804F24D14BF0FB
:100580000100C0B2216842464B4608612046294618
:1005900000F0BAFD0028EBD1218D01294BD00029B4
:1005A0005FD1002002902068416902918169029127
:1005B0000299016841F40071016074E00829C2D019
:1005C000216B1129BFD0C2E706202F462168424681
:1005D0004B4600EADB1505F1F0000861B91D204625
:1005E00000F092FD0028C3D120685FFA8BF14246EB
:1005F0004B4601612046394600F086FD0028B7D100
:1006000000200022434602902068416902918169DE
:1006100002910299016841F48071016020464FF017
:100620000111CDF8009000F034FD002899D145F07B
:10063000F1003546A6E72068016821F48061016079
:10064000EFF3108072B60020029020684169029199
:10065000816902910299016841F40071016062B6FA
:1006600021E020680229026813D142F40061016090
:10067000EFF3108072B60020029020684169029169
:10068000816902910299016821F48061016062B67A
:1006900009E042F480610160002102914169029108
:1006A000806902900298208DDFF844A9AF1C46F2C1
:1006B000A81B2325010400F09E8086B2032E0AD8D1
:1006C000012E24D1204641464A4600F068FD00280C
:1006D00000F077804CE7204641464A4600F05FFD37
:1006E00000287FF445AF2068616A00690870608D5A
:1006F00001386085606A2168421C208D6262013881
:1007000020854B695B07D5D5086910705DE02046F0
:10071000394600224346CDF8009000F0BAFC022E84
:1007200018D100287FF424AFEFF3108072B6616A0D
:100730002068026842F40072026000690870606A12
:1007400001306062608D01386085208D0138208520
:1007500062B636E000287FF40BAF2068016821F410
:1007600080610160EFF3108072B6616A20680069F1
:100770000870608D01386085218D606A0139013013
:100780002185DAF800106062B1FBFBF16943019149
:10079000019901390191019909B321684A69520708
:1007A000F6D50A6842F400720A6009690170606A4D
:1007B00001306062208D01382085608D01386085B0
:1007C00062B62068616A00690870606A0130606220
:1007D000208D01382085618D013961856AE700200F
:1007E0002021206321646064A16C41F02001A16498
:1007F00062B6E063BCE6202020640020E063606411
:10080000BDE8FE8F020001002DE9FC471F46164699
:1008100089460446FFF78EFD8246206C20280DD1C4
:100820005C4D204601221923CDF800A005F570216A
:1008300000F02FFC10B9E06B012802D10220BDE8C6
:10084000FC870120E06320680168C90703D10168C3
:1008500041F0010101600168A5F10212DDF8288074
:1008600021F40061016021212164102161640021D3
:10087000A1646785618DE26266622185E16A11F596
:10088000803F18BF01291BD1016841F480710160CC
:1008900020464FF0011100224346CDF800A000F0A1
:1008A000F8FB38B120680068C00544BF4FF4007001
:1008B000A06424E02069B0F5804F07D1FE2013E04A
:1008C0000829E1D0216B1229DED0E1E7062021685A
:1008D0004246534600EAD910F0300861A91D20466F
:1008E00000F012FC58B9FF20216800EA09004246D6
:1008F000534608612046294600F006FC10B101204D
:10090000BDE8FC8700200190206841690191806961
:1009100001900198208D88B320464146524600F050
:1009200068FC10BB606A2168024612F8013B0B614B
:10093000638D013B63856262228D561E26853604D7
:100940004B6918BF13F0040308D0437802300B61E1
:100950006062901E2085608D01386085204641468A
:10096000524600F073FB0028D4D0A06C0428C6D1F6
:100970002068016841F400710160C0E720680168E7
:1009800041F400710160202020640020E063606475
:10099000BDE8FC870200010010B586B00021CDE95A
:1009A0000411CDE902110168114881421DD13B4C6F
:1009B00000F53840216841F008012160216801F00C
:1009C000080101910321059112210391C021029197
:1009D000019902A9FFF7DEFB606840F40010606037
:1009E000606800F400100190019806B010BD00BFCF
:1009F000005400401A48034940680A6810440860DF
:100A0000704700BF8800002080B58F48016841F022
:100A100010010160032000F071F8002000F004F8DC
:100A200000F020F8002080BD70B50D4E04464FF454
:100A30007A717068B1FBF0F08B490968B1FBF0F096
:100A400000F0DAFA01250F2C08D838B94FF0FF3042
:100A500021460022002500F025F83460284670BDAC
:100A60000000002082B00D480222016841F001011F
:100A70000160016801F0010101910199416841F0B3
:100A800080514160406800F0805000900098044818
:100A9000016862F31A61016002B0704718100240E9
:100AA00004000140F0B51B4B4FF0FF361C68C4F347
:100AB0000224E51E84F0070438BF0025042C28BF5B
:100AC000042406FA05F706FA04F4BA43B0F1FF3F2E
:100AD00021EA040100F00F0401FA05F1A4F1040475
:100AE00041EA02012344044A03F10C034FEA0111D5
:100AF000C8BF83181970F0BD00E400E005494FF647
:100B0000FF030A681A4060F30A2203481043086092
:100B1000704700BF0CED00E00000FA052DE9F84336
:100B200000286AD0884648490446086800F0070053
:100B300040450AD2086820F0070040EA0800086033
:100B4000086800F00700404557D12068554B89469A
:100B5000810711D5410703D5196841F4E061196097
:100B6000010703D5196841F460511960A1681A683A
:100B700022F0F00211431960C00737D1D9F8000004
:100B800000F0070040450DD9D9F8000020F007001B
:100B900040EA0800C9F80000D9F8000000F007009A
:100BA00040452AD12068410705D5E1681A6822F43A
:100BB000E06211431960000706D52069196821F425
:100BC000605141EAC00018601C4600F051F82168ED
:100BD0001E4AC1F30311515CC840234908601C48F8
:100BE0000068FFF721FF0020BDE8F8836068012856
:100BF00006D153F8041C89030BD40120BDE8F88307
:100C000053F8041C022802D18901F6D501E08907B6
:100C1000F3D519681D4621F0030108431860FFF75A
:100C200089FB064641F28837606829682B4601F047
:100C30000C01B1EB800FA1D0FFF77CFB801BB84209
:100C4000F2D90320BDE8F8830020024066140008B2
:100C500000000020E6481349044A00680968C1F30F
:100C60000221515CC840704708000020761400083B
:100C700010B50C490C480A6802F00C03082B07D188
:100C8000C2F3834309A4D203E35C02D40C48584363
:100C900010BD096809A25843C1F34041515CB0FB43
:100CA000F1F010BD0410024000127A0002030405A6
:100CB000060708090A0B0C0D0E0F101001020000A8
:100CC00000093D002DE9FC41002800F0A680044603
:100CD0000078C54EC00725D0706800F00C000428CD
:100CE0001AD0706800F00C00082802D17068C003A8
:100CF00012D46068002800F00C81B0F5803F07D066
:100D00003168B0F5A02F40F0388141F48020306088
:100D1000306840F4803036E13068800302D5606886
:100D200000287AD02078800718D5706810F00C0F52
:100D300007D0706800F00C00082824D17068C00348
:100D400021D43068800702D52069012865D1606907
:100D5000316821F0F80141EAC000306020780007D6
:100D600041D5A06910B3A1480121C0F88014FFF754
:100D7000E1FA0546706A800728D4FFF7DBFA401BCA
:100D80000228F7D90CE121699848002900F09A80DF
:100D900001210160FFF7CEFA054630688007D6D4FE
:100DA000FFF7C8FA401B0228F7D9F9E08F48002165
:100DB000C0F88014FFF7BEFA0546706A800712D5A6
:100DC000FFF7B8FA401B0228F7D9E9E088484FF44A
:100DD000FA510068B0FBF1F0019000BF0198411E8C
:100DE00000280191F9D12078400719D4E7698FB123
:100DF000706800F00C00082845D1012F0DD0216A41
:100E0000706800F480328A4207D1616A00F4701081
:100E1000884202D10020BDE8FC810120BDE8FC81B0
:100E2000F069C0000BD4F0694FF0010840F0805029
:100E3000F061F06900F080500090009801E04FF000
:100E400000086C4F3868C0050FD4386840F48070D3
:100E50003860FFF76FFA05463868C00505D4FFF71C
:100E600069FA401B6428F7D99AE0E068D0B30128FA
:100E700005D0316A052862D141F004003062306A41
:100E800040F0010061E05949002088460866FFF7FC
:100E900051FA0546022F0BD147463068800140F1D8
:100EA0008280FFF747FA411B03200229F5D9B2E7F8
:100EB00030688001AED5FFF73DFA411B03200229BF
:100EC000F6D9A8E700210160FFF734FA054630683B
:100ED00080077FF543AFFFF72DFA411B032002295E
:100EE000F5D998E7306A20F001003062306A20F0CE
:100EF00004003062FFF71EFA054641F28837306A77
:100F0000800731D5FFF716FA411B0320B942F6D905
:100F100081E7306820F480303060306820F4802031
:100F20003060FFF707FA0546306880037FF5FAAEB8
:100F3000FFF700FA411B03206429F5D96BE721F084
:100F400001003062306A20F004003062FFF7F2F9ED
:100F5000054641F28837306A800705D4FFF7EAF981
:100F6000401BB842F7D91BE0B8F1000F3FF43EAF89
:100F7000F06920F08050F06138E721F48030306073
:100F8000306820F480203060FFF7D4F905463068DF
:100F900080033FF5C7AEFFF7CDF9401B6428F6D9B3
:100FA0000320BDE8FC81206AB0F5803F05D1A1682F
:100FB000726822F4003211437160616A08437168FB
:100FC00021F474110843706001203866FFF7B2F90C
:100FD0000446306880013FF51DAFFFF7ABF9011BF8
:100FE00003200229F5D916E7001002400000424212
:100FF0000800002000700040411E0020B0EB116F7F
:101000001CBF01207047044AF023516003490B7054
:10101000072190601160704710E000E023ED00E0D0
:10102000FEE70268516949054FF000010CD56FF4E5
:10103000806353612022016302644164C163816C57
:1010400041F004018164012108467047F8B5154656
:101050000E4604464F1C20684069400717D42046BE
:10106000FFF7DFFF88B9002FF5D0FFF763F916B15E
:10107000401BB042EFD9002020212063216460642E
:10108000E063A06C40F02000A0640120F8BD0020C7
:10109000F8BD2DE9F047DDF820909A4616468046C7
:1010A0008FB201F47F045D1C1820B4F5803F08BFA7
:1010B0001420D8F8001008583840C01BB0FA80F04F
:1010C0004009B0421DD1002DEED0FFF733F9BAF13F
:1010D000000F03D0A0EB09005045E5D900202021E6
:1010E000C8F83000C8F84010C8F84400C8F83C0000
:1010F000D8F8480040F02000C8F848000120BDE8BA
:10110000F0870020BDE8F0872DE9F84398461646A1
:1011100081468FB201F47F05541CD9F80000B5F563
:10112000803F0CBF416981693940B9421AD0416999
:1011300049051AD4002CF0D0FFF7FCF81EB1A0EB43
:101140000800B042E9D900202021C9F83000C9F8D0
:101150004010C9F84400C9F83C00D9F8480040F0F4
:10116000200017E00020BDE8F883016841F4007119
:1011700001606FF48061416100202021C9F83000D6
:10118000C9F84010C9F84400C9F83C00D9F8480033
:1011900040F00400C9F848000120BDE8F88370B5AC
:1011A00015460E46044620684169490611D4416936
:1011B000C90610D4FFF7BEF816B1401BB042F2D9F1
:1011C00000202021206321646064A06C40F0200096
:1011D0000AE0002070BD6FF0100141610020202165
:1011E000206321646064A06CA0640020E06301209F
:1011F00070BDF8B515460E4604464F1C2068406980
:10120000000617D42046FFF70CFF88B9002FF5D051
:10121000FFF790F816B1401BB042EFD90020202113
:10122000206321646064E063A06C40F02000A0644F
:101230000120F8BD0020F8BDBFB50DF10204054640
:1012400068203B210E23224600F038F800200328B6
:1012500007D034F8101009BA090C25F81010013025
:10126000F5E7A81D0021032908BFBFBD04EB41021B
:10127000128912BA120C20F811200131F3E7000094
:10128000BCB56B200DF101040B4D0222ADF801003D
:1012900068202146A84740F61B0021460222ADF8EF
:1012A00001006820A84741F21C0021460222ADF847
:1012B00001006820A847BCBD151300082DE9FC41BA
:1012C00015468DF807100DF1070101221C46064650
:1012D00000F020F8594877004FF0640800F11C0630
:1012E000304639462A462346CDF80080FFF78CFA6F
:1012F00040B13046FFF724F80428F1D0EFF3108016
:1013000072B6FEE73046FFF71DF82028FAD1BDE897
:10131000FC8100BF1CB513460A4664210091474971
:1013200001F11C0441002046FFF7C6F818B1EFF3A5
:10133000108072B6FEE72046FFF704F82028FAD1A5
:101340001CBD00BFFEE7FEE770477047FFF752BBCA
:10135000B0B590B0002401A81421CDE90B44CDE92B
:101360000944FEF7E6FE4FF48030022501210F9478
:1013700008940E900D950A91CDE9061006A8FFF786
:10138000A1FC18B1EFF3108072B6FEE70F20CDE993
:101390000444CDE902540021019001A8FFF7BEFBEF
:1013A00018B1EFF3108072B6FEE710B0B0BD704711
:1013B000FEE7000084B0FFF727FBFFF7C9FF1E48D8
:1013C000204B4FF48042016841F020010160016828
:1013D00001F0200103910399016841F004010160CB
:1013E000016801F0040102910299016841F00801CD
:1013F00001601349006800F00800019001980F484F
:1014000040F81C1F0021C0E90131C0E90312C0E906
:101410000511C0E90711FEF797FF18B1EFF310802F
:1014200072B6FEE7FFF72CFF044C2046FFF704FFDF
:101430006420FEF79DFEF8E718100240100000201F
:1014400000540040A086010002E008C8121F08C135
:10145000002AFAD170477047002001E001C1121F35
:10146000002AFBD1704700000000000000000102CC
:10147000030406070809000000000102030400003D
:10148000A01400080000002010000000481400080C
:10149000B014000810000020800400005814000858
:1014A00010000000010000000024F4000000000013
:04000005080000ED02
:00000001FF
