:020000040800F2
:10000000A817002001010008FD3900081D30000874
:10001000F9390008C50100080D7B00080000000048
:1000200000000000000000000000000099400008EF
:10003000950200080000000059400008F140000847
:100040001B0100081B0100081B0100081B01000820
:100050001B0100081B0100081B0100081B01000810
:100060001B0100081B0100081B0100081B01000800
:100070001B0100081B0100081B0100081B010008F0
:100080001B0100081B0100081B0100081B010008E0
:100090009D7900081B0100081B0100081B010008D6
:1000A0001B0100081B0100081B0100081B010008C0
:1000B0001B0100081B0100081B0100081B010008B0
:1000C0001B0100081B0100081B0100081B010008A0
:1000D0001B0100081B0100081B0100081B01000890
:1000E0001B0100081B0100081B010008DFF80CD0F1
:1000F00000F02AF800480047C57B0008A817002038
:100100000648804706480047FEE7FEE7FEE7FEE7B1
:10011000FEE7FEE7FEE7FEE7FEE7FEE791410008A7
:10012000ED000008D2B201E000F8012B491EFBD21D
:1001300070470022F6E710B513460A4604461946F2
:10014000FFF7F0FF204610BD064C074D06E0E068C3
:1001500040F0010394E8070098471034AC42F6D30E
:10016000FFF7C8FF847C0008A47C000870B58C18D9
:1001700010F8015B15F0070301D110F8013B2A11BB
:1001800006D110F8012B03E010F8016B01F8016BA8
:100190005B1EF9D12B0705D40023521E0DD401F8A4
:1001A000013BFAE710F8013BCB1A921C03E013F86D
:1001B000015B01F8015B521EF9D5A142D8D30020A2
:1001C00070BD0000FFE7FEE784B0134684468DF85B
:1001D0000F000291ADF806209DF80F00014623287C
:1001E00000911DD80099DFE801F012131415161BB9
:1001F0001B1B1B1B1B1B1B1B1B1B1B1B1B1B1B1B4F
:100200001B1B1B1B1B1B1B1B1B1B1718191A08E096
:1002100007E006E005E004E003E002E001E000E0C2
:10022000FFE7002004B070470020704780B584B01D
:1002300040F69450C2F2000040F68C11C2F2000168
:1002400000220390029204F0ADF940F2A451C2F2F0
:100250000001039A0190104604F096F9029900906B
:10026000084604B080BD000080B586B005900491BA
:10027000059940F69450C2F20000039004F084F90E
:1002800003990290084604F037F9002101900846CE
:1002900006B080BD7047000081B0EFF3108072B6E9
:1002A0000090FFE7FEE7000080B584B04FF2E870F1
:1002B000C1F6FF70006803904FF2EC70C1F6FF705A
:1002C000006802904FF2F070C1F6FF700068019074
:1002D00001980399084403900398002813D0FFE77E
:1002E000039840F25811C2F200018A1C08230091C1
:1002F00011461A4603F0DEF90298009912310422E1
:1003000003F0D8F9FFE704B080BD000080B584B0E9
:10031000039000F0B5F90290039801900198013024
:10032000002809D0FFE740F27410C2F20000006814
:10033000019908440190FFE7FFE700F0A1F9029955
:10034000401A0199884201D2FFE7F6E704B080BD68
:1003500090B00F900E9100200D900990FFE70E983D
:1003600000680D99C840002800F08781FFE70D98CC
:10037000012101FA00F00C900E9800680C990840D9
:100380000B900B980C99884240F07381FFE70E9810
:1003900040680028059051D0FFE7059801283AD021
:1003A000FFE7059802283FD0FFE70598032860D0B3
:1003B000FFE70598112832D0FFE70598122838D0BA
:1003C000FFE70020C1F211000599814236D0FFE716
:1003D0000020C1F21200059981422FD0FFE70020D2
:1003E000C1F221000599814228D0FFE70020C1F227
:1003F00022000599814221D0FFE70020C1F231009F
:10040000059981421AD0FFE70020C1F23200059918
:10041000814213D030E00E98C06809902DE00E980C
:10042000C0680430099028E00E98C0680830099030
:1004300023E00E98C0680C3009901EE00E9880688A
:10044000002803D1FFE70420099011E00E9880688E
:10045000012806D1FFE7082009900C980F99086140
:1004600005E0082009900C980F994861FFE7FFE725
:1004700003E00020099000E0FFE70B98FF2803D875
:10048000FFE70F98049003E00F9804300490FFE713
:10049000049808900B98FF2804D8FFE70D98800077
:1004A000039006E00D986FF01F0101EB80000390B0
:1004B000FFE7039807900898006807990F228A4081
:1004C0009043099A02FA01F10843089908600E98CE
:1004D000C079C006002840F1CB80FFE7FFE741F27A
:1004E0001800C4F20200016841F0010101600068D7
:1004F00000F0010006900698FFE70D9820F0030039
:100500000821C4F2010140580A900D9800F0030040
:1005100080000F2101FA00F00A9921EA00000A90F8
:100520000F9840F60001C4F20101884203D1FFE7B1
:100530000020029026E00F9840F60041C4F201012D
:10054000884203D1FFE70120019018E00F9841F2A3
:100550000001C4F20101884203D1FFE702200090AC
:100560000AE00F9841F20041C4F2010104228842DE
:1005700008BF03220092FFE700980190FFE701986F
:100580000290FFE702980D9901F00301890088406D
:100590000A9908430A900A980D9921F0030108224C
:1005A000C4F2010288500E988079C007002809D053
:1005B000FFE70B9840F20041C4F201010A681043C2
:1005C000086009E00B9840F20041C4F201010A689A
:1005D00022EA00000860FFE70E9880798007002873
:1005E00009D5FFE70B9840F20441C4F201010A6803
:1005F0001043086009E00B9840F20441C4F2010185
:100600000A6822EA00000860FFE70E988079C006B9
:10061000002809D5FFE70B9840F20841C4F2010118
:100620000A681043086009E00B9840F20841C4F2E0
:1006300001010A6822EA00000860FFE70E9880794D
:100640008006002809D5FFE70B9840F20C41C4F260
:1006500001010A681043086009E00B9840F20C4160
:10066000C4F201010A6822EA00000860FFE7FFE720
:10067000FFE70D9801300D9071E610B07047000053
:1006800041F2A430C2F200000068704781B00090CF
:100690000098806C01B0704781B000900098006CA9
:1006A00001B0704780B58EB00C900C98002803D133
:1006B000FFE701200D9046E10C98006C002807D15F
:1006C000FFE70C980021C1630C9800F08DFCFFE758
:1006D0000C98242101640C980068016821F0010144
:1006E00001600C980068016841F4004101600C98B9
:1006F0000068016821F40041016002F0D3F80A901B
:100700000C98406848F2A061C0F2010188420BD801
:10071000FFE70A9848F28041C0F21E010022884299
:1007200038BF012209920AE00A9840F60011C0F28F
:100730003D010022884238BF01220992FFE7099853
:10074000012803D1FFE701200D90FCE00A984DF647
:100750008361C4F21B31A0FB0101890C0B910C9940
:100760000968496821F03F010B9A11430C9A1268FD
:1007700051600C990968096A21F03F010C9A52688E
:1007800048F2A063C0F201039A42089104D8FFE73F
:100790000B98013007900EE00B984FF49671484388
:1007A00044F6D351C1F26201A0FB0101012202EB28
:1007B00091110791FFE70798089908430C9A12686E
:1007C00010620C980068C0694CF6FF7290430C9A56
:1007D000526848F2A063C0F201039A4206901FD803
:1007E000FFE70A9801380C9949684900B0FBF1F01D
:1007F00001306FF31F30032803D8FFE70420059072
:100800000BE00A9801380C9949684900B0FBF1F0F7
:1008100001306FF31F300590FFE7059804904FE01B
:100820000C98806800280DD1FFE70A9801380C99D0
:10083000496801EB4101B0FBF1F001306FF31F306B
:1008400003900DE00A9801380C9949681922514328
:10085000B0FBF1F00130042161F31F300390FFE79A
:1008600003980005002803D1FFE70120029024E04F
:100870000C98806800280DD1FFE70A9801380C9980
:10088000496801EB4101B0FBF1F001306FF31F301B
:1008900001900DE00A9801380C99496819225143DA
:1008A000B0FBF1F00130042161F31F300190FFE74C
:1008B000019840F400400290FFE702980490FFE79F
:1008C0000498069908430C9A1268D0610C98006845
:1008D000006820F0C0000C9A1368D2F81CC0126A9D
:1008E00042EA0C02104318600C980068806848F2D5
:1008F000FF3290430C9A1368D2F80CC0126942EA96
:100900000C02104398600C980068C06820F0FF004B
:100910000C9A1368D2F814C0926942EA0C02104390
:10092000D8600C980068026842F0010202600C98DE
:10093000002282640C98202303640C9802630C98B4
:1009400042640D92FFE70D980EB080BD10B594B0D3
:10095000DDF858C09E460C460E90ADF836100C924D
:10096000ADF82E3000200A90CDF810C0CDF80CE084
:100970000294FFF785FE09900E98006C202840F045
:100980002B82FFE70E9809996A4611600221C0F296
:1009900010010122192302F013FD002803D0FFE704
:1009A00002200F901BE2FFE70E98C06B012803D1D5
:1009B000FFE702200F9012E20E980121C163FFE7CA
:1009C000FFE70E9800680068C007002807D1FFE71E
:1009D0000E980068016841F001010160FFE70E9880
:1009E0000068016821F4006101600E982221016411
:1009F0000E98102141640E98002181640C980E9984
:100A00004862BDF82E000E9948850E98408D0E99CB
:100A100008850E980021CFF6FF71C1620E98BDF8CF
:100A20003610169A099B02F027FB002803D0FFE737
:100A300001200F90D3E10E98008D002814D1FFE71C
:100A4000FFE7002008900E980068406908900E9813
:100A50000068806908900898FFE70E9800680168B0
:100A600041F4007101605DE00E98008D01281FD1F6
:100A7000FFE70E980068016821F480610160EFF3E0
:100A8000108072B61090FFE7002007900E98006863
:100A9000406907900E980068806907900798FFE703
:100AA0000E980068016841F40071016062B638E098
:100AB0000E98008D02281FD1FFE70E98006801688C
:100AC00041F400610160EFF3108072B61190FFE70E
:100AD000002006900E980068406906900E98006805
:100AE000806906900698FFE70E980068016821F477
:100AF0008061016062B613E00E980068016841F4FD
:100B000080610160FFE7002005900E980068406951
:100B100005900E980068806905900598FFE7FFE74B
:100B2000FFE7FFE7FFE70E98008D002800F0468101
:100B3000FFE70E98008D032800F20481FFE70E986E
:100B4000008D01281ED1FFE70E981699099A02F030
:100B500011FD002803D0FFE701200F903FE10E9820
:100B6000006800690E99496A08700E98416A01315F
:100B700041620E98018D013901850E98418D013930
:100B80004185DEE00E98008D022841D1FFE70E98E6
:100B9000169B09996A4611600421C0F201010022E6
:100BA00002F00EFC002803D0FFE701200F9016E1B1
:100BB000EFF3108072B612900E980068016841F44D
:100BC000007101600E98006800690E99496A08700A
:100BD0000E98416A013141620E98018D01390185FB
:100BE0000E98418D0139418562B60E980068006902
:100BF0000E99496A08700E98416A013141620E9857
:100C0000018D013901850E98418D0139418597E0AB
:100C10000E98169B09996A4611600421C0F20101E1
:100C2000002202F0CDFB002803D0FFE701200F9047
:100C3000D5E00E980068016821F480610160EFF34F
:100C4000108072B613900E98006800690E99496A78
:100C500008700E98416A013141620E98018D013988
:100C600001850E98418D0139418540F21C00C2F288
:100C70000000006848F21F51C5F2EB11A0FB010112
:100C8000C90844F6D352C1F26202A1FB02129209D2
:100C900023235A430A92FFE70A9801380A900A98D8
:100CA000002816D1FFE70E98002101630E9820223C
:100CB00002640E9841640E98816C41F020018164B9
:100CC00062B6FFE70E980021C163FFE701200F9095
:100CD00085E0FFE70E980068406900F004000021FD
:100CE000B1EB900FD8D0FFE70E980068016841F48F
:100CF000007101600E98006800690E99496A0870D9
:100D00000E98416A013141620E98018D01390185C9
:100D10000E98418D0139418562B60E9800680069D0
:100D20000E99496A08700E98416A013141620E9825
:100D3000018D013901850E98418D01394185FFE70B
:100D4000FFE73AE00E981699099A02F013FC002882
:100D500003D0FFE701200F9041E00E980068006982
:100D60000E99496A08700E98416A013141620E98E5
:100D7000018D013901850E98418D013941850E980B
:100D80000068406900F004000121B1EB900F13D11D
:100D9000FFE70E98006800690E99496A08700E987E
:100DA000416A013141620E98018D013901850E9829
:100DB000418D01394185FFE7FFE7B4E60E98202118
:100DC00001640E9800214164FFE70E980021C16381
:100DD000FFE700200F9002E002200F90FFE70F983E
:100DE00014B010BD10B58CB0DDF838C09E460C466E
:100DF0000A90ADF826100892ADF81E30CDF810C05C
:100E0000CDF80CE00294FFF73BFC06900A98006CCA
:100E1000202840F0E280FFE70A9806996A461160B0
:100E20000221C0F210010122192302F0C9FA0028A0
:100E300003D0FFE702200B90D2E0FFE70A98C06BD7
:100E4000012803D1FFE702200B90C9E00A98012195
:100E5000C163FFE7FFE70A9800680068C007002841
:100E600007D1FFE70A980068016841F001010160BD
:100E7000FFE70A980068016821F4006101600A98A0
:100E8000212101640A98102141640A98002181649B
:100E900008980A994862BDF81E000A9948850A9880
:100EA000408D0A9908850A980021CFF6FF71C1622A
:100EB0000A98BDF826100E9A069B02F0B1F9002898
:100EC00003D0FFE701200B908AE0FFE700200590A8
:100ED0000A980068406905900A9800688069059042
:100EE0000598FFE7FFE70A98008D002861D0FFE72B
:100EF0000A980E99069A02F097FB00280FD0FFE798
:100F00000A98806C042807D1FFE70A9800680168F6
:100F100041F400710160FFE701200B9060E00A9846
:100F20000168406A007808610A98416A01314162AB
:100F30000A98418D013941850A98018D0139018551
:100F40000A980068406900F004000121B1EB900F9D
:100F500017D1FFE70A98008D002812D0FFE70A9802
:100F60000168406A007808610A98416A013141626B
:100F70000A98418D013941850A98018D0139018511
:100F8000FFE70A980E99069A02F0D2F900280FD0CE
:100F9000FFE70A98806C042807D1FFE70A980068E9
:100FA000016841F400710160FFE701200B9017E038
:100FB00099E70A980068016841F4007101600A9895
:100FC000202101640A9800214164FFE70A9800216A
:100FD000C163FFE700200B9002E002200B90FFE7C7
:100FE0000B980CB010BD000080B588B007900020B1
:100FF00006900590049003900798006845F2004120
:10100000C4F2000188422CD1FFE7FFE741F218004B
:10101000C4F20200016841F008010160006800F0BC
:10102000080002900298FFE7C0200390122004906D
:101030000320069040F60040C4F2010003A9FFF728
:1010400087F9FFE741F21C00C4F20200016841F495
:1010500000110160006800F4001001900198FFE7A2
:10106000FFE708B080BD000040F27410C2F200003B
:10107000006841F2A431C2F200010A68104408601D
:101080007047000080B582B042F20000C4F2020056
:10109000016841F010010160032000F097F8002082
:1010A000019000F007F8009000F03AF8019802B0C3
:1010B00080BD000080B582B0009040F21C00C2F2FA
:1010C0000000006840F27411C2F2000109684FF498
:1010D0007A72B2FBF1F1B0FBF1F001F097FF00285A
:1010E00003D0FFE70120019016E000980F280DD8EB
:1010F000FFE700994FF0FF30002200F04BF8009816
:1011000040F27811C2F20001086002E00120019073
:1011100002E000200190FFE7019802B080BD0000CE
:1011200083B0FFE741F21800C4F20200016841F009
:1011300001010160006800F0010002900298FFE7E1
:10114000FFE741F21C00C4F20200016841F0805147
:101150000160006800F0805001900198FFE7FFE710
:101160000420C4F2010001680091009921F0E061BF
:101170000091009941F00071009100990160FFE732
:1011800003B0704780B582B00190019806F0C0FCB2
:1011900002B080BD80B586B0059004910392002016
:1011A000029006F0CBFC029005980299049A039BEA
:1011B0000190084611461A4602F022FC019900905F
:1011C0000846009906F0C2FC06B080BD80B582B02A
:1011D0000190019806F0D8FC02B080BD80B584B0C3
:1011E00094468E460390ADF80A10ADF8082001939E
:1011F000BDF80A00000600280CD5FFE70398BDF8EB
:101200000A1001F0070101EB810100EBC100283059
:1012100000900AE00398BDF80A1001EB810100EB91
:10122000C10000F5B4700090FFE7BDF80800002889
:1012300007D1FFE700980021017301980099C88049
:101240000AE0009801210173019800990881BDF816
:10125000060000994881FFE7002004B080BD00002F
:1012600082B00A4601908DF803109DF80300012812
:1012700001D1FFE700E0FFE702B0704780B584B01E
:101280000A4603908DF80B100398D0F8EC129DF8E5
:101290000B3003EB830C00EBCC00C06B01900846D5
:1012A0001946019B00921A4603F0DAFE04B080BD95
:1012B00080B584B00A4603908DF80B100398D0F8DF
:1012C000EC129DF80B3003EB830C00EBCC00D0F854
:1012D0007C01019008461946019B00921A4603F0D2
:1012E0007DFF04B080BD000080B584B00A46029046
:1012F0008DF807109DF80700000600280FD5FFE7BE
:1013000002989DF8071001F0070101EB810100EB45
:10131000C100283000900098012141700FE0029830
:101320009DF8071001F0070101EB810100EBC100FE
:1013300000F5B4700090009800214170FFE79DF81F
:10134000070000F0070000990870FFE70298D0F846
:10135000A802012803D1FFE70220039013E00298BE
:101360000121C0F8A812FFE7FFE702980068009982
:1013700005F0E2F8FFE702980021C0F8A812FFE7A5
:1013800000200390FFE7039804B080BD80B584B0CF
:101390000A4602908DF807109DF8070000F00F0034
:1013A00002994968884203D9FFE7012003904BE086
:1013B0009DF80700000600280FD5FFE702989DF86A
:1013C000071001F0070101EB810100EBC10028309B
:1013D00000900098012141700FE002989DF80710DD
:1013E00001F0070101EB810100EBC10000F5B470D1
:1013F0000090009800214170FFE700980021817063
:101400009DF8070000F0070000990870FFE70298B8
:10141000D0F8A802012803D1FFE70220039013E0CF
:1014200002980121C0F8A812FFE7FFE702980068C0
:10143000009905F07FFAFFE702980021C0F8A81292
:10144000FFE700200390FFE7039804B080BD000091
:1014500080B588B0134607900691ADF81620BDF808
:101460001600400400287CD5FFE707980068B0F814
:1014700050000699097800EBC1000799096801EB53
:101480004000B0F804046FF39F20ADF814000698F4
:101490008069BDF81410884207D3FFE7BDF8140037
:1014A00006998A69101A886103E006980021816113
:1014B000FFE70698806900281FD1FFE7FFE707983C
:1014C00000680699097830F821004BF68F710840C2
:1014D000ADF81200BDF8120080F40050ADF8120013
:1014E000BDF8120048F28001084307990968069A7E
:1014F000127821F82200FFE7FFE7BDF8160040064A
:1015000000281BD5FFE7FFE7FFE70798006806996B
:10151000097830F8210048F68F710840ADF81000C6
:10152000BDF8100048F2C001084307990968069AFF
:10153000127821F82200FFE7FFE7FFE7BDF814006B
:1015400000280DD0FFE70798006806994A690989C5
:10155000BDF8143002911146029A06F031FAFFE705
:101560007BE007980068B0F850000699097800EB16
:10157000C1000799096801EB4000B0F80C046FF353
:101580009F20ADF8140006988069BDF814108842B9
:1015900007D3FFE7BDF8140006998A69101A88611D
:1015A00003E0069800218161FFE706988069002822
:1015B0001FD1FFE7FFE7079800680699097830F820
:1015C00021004BF68F710840ADF80E00BDF80E00FB
:1015D00080F40050ADF80E00BDF80E0048F2800116
:1015E000084307990968069A127821F82200FFE754
:1015F000FFE7BDF81600400600281BD4FFE7FFE711
:10160000FFE7079800680699097830F8210048F646
:101610008F710840ADF80C00BDF80C0048F2C00115
:10162000084307990968069A127821F82200FFE713
:10163000FFE7FFE7BDF8140000280DD0FFE707988B
:10164000006806994A694989BDF81430019111462C
:10165000019A06F0B5F9FFE7FFE7BDF8140008B0FE
:1016600080BD000080B594B0134613901291ADF880
:101670004620BDF846004006002840F13681FFE7CD
:1016800013980068B0F850001299097800EBC10077
:101690001399096801EB4000B0F804046FF39F2030
:1016A000ADF83E0012988069BDF83E10884207D917
:1016B000FFE7BDF83E0012998A69101A886103E0BD
:1016C000129800218161FFE712988069002827D1D4
:1016D000FFE7139812990978FFF7D0FDBDF846008F
:1016E000400400281BD5FFE7FFE7FFE713980068D9
:1016F0001299097830F8210048F68F710840ADF84A
:101700003C00BDF83C004CF2800108431399096885
:10171000129A127821F82200FFE7FFE7FFE7E3E0E3
:10172000BDF84600400400281BD5FFE7FFE7FFE7B0
:10173000139800681299097830F8210048F68F71E3
:101740000840ADF83A00BDF83A004CF28001084379
:1017500013990968129A127821F82200FFE7FFE72F
:10176000FFE7129890F82400012840F0BC80FFE7C2
:10177000BDF83E0012994A6910444861BDF83E0028
:101780001299CA691044C86112980169006A8842B6
:1017900009D3FFE7129800691090109812990A6A0D
:1017A000101A086217E01298006A002808D1FFE7B3
:1017B000BDF83E0010901298002180F8241009E036
:1017C0001298002180F824101298006A1090129844
:1017D0000162FFE7FFE7FFE712984078002856D143
:1017E000FFE7FFE7139800680D9013980068B0F8C2
:1017F00050000D9908440D900D981299097800EB4E
:10180000011000F204400C90FFE7109800280BD163
:10181000FFE70C98018821F4F84101800C980188B9
:1018200041F4004101802FE010983E2814D8FFE7D2
:10183000FFE7109840080B909DF84000C007002873
:1018400004D0FFE70B9801300B90FFE70B98800264
:101850000C990880FFE716E0FFE7109840090B900D
:101860009DF84000C006002804D1FFE70B9801381E
:101870000B90FFE70B984FF4004141EA80200C9950
:101880000880FFE7FFE7FFE7FFE7FFE71DE01298AB
:101890004078012818D1FFE7FFE7139800680A9005
:1018A00013980068B0F850000A9908440A900A9802
:1018B0001299097800EB011000F204400990109889
:1018C00009990880FFE7FFE7FFE7FFE71398006843
:1018D00012994A690989BDF8403001911146019A6F
:1018E00006F0D2F8FFE7FFE732E113980068B0F89E
:1018F00050001299097800EBC1001399096801EBB7
:101900004000B0F80C046FF39F20ADF83E00129831
:101910008069BDF83E10884207D3FFE7BDF83E005E
:1019200012998A69101A886103E012980021816176
:10193000FFE712988069002827D1FFE713981299D2
:101940000978FFF79BFCBDF84600400400281BD433
:10195000FFE7FFE7FFE7139800681299097830F86E
:10196000210048F68F710840ADF82200BDF8220032
:101970004CF28001084313990968129A127821F8F1
:101980002200FFE7FFE7FFE7E1E0BDF84600400483
:1019900000281BD4FFE7FFE7FFE7139800681299C0
:1019A000097830F8210048F68F710840ADF8200022
:1019B000BDF820004CF28001084313990968129A7F
:1019C000127821F82200FFE7FFE7FFE7129890F86E
:1019D0002400012840F0BA80FFE7BDF83E001299CC
:1019E0004A6910444861BDF83E001299CA69104422
:1019F000C86112980169006A884209D3FFE712980A
:101A000000691090109812990A6A101A086217E07B
:101A10001298006A002808D1FFE7BDF83E00109038
:101A20001298002180F8241009E01298006A1090A2
:101A3000129800210162129880F82410FFE7FFE756
:101A4000FFE713980068079012984078002856D155
:101A5000FFE7FFE713980068059013980068B0F857
:101A6000500005990844059005981299097800EBF3
:101A7000011000F20C400490FFE7109800280BD1F1
:101A8000FFE70498018821F4F84101800498018857
:101A900041F4004101802FE010983E2814D8FFE760
:101AA000FFE71098400803909DF84000C007002809
:101AB00004D0FFE7039801300390FFE7039880020A
:101AC00004990880FFE716E0FFE7109840090390AB
:101AD0009DF84000C006002804D1FFE703980138B4
:101AE0000390FFE703984FF4004141EA80200499F6
:101AF0000880FFE7FFE7FFE7FFE7FFE718E012983E
:101B00004078012813D1FFE713980068B0F850001F
:101B100007990844079007981299097800EB01107B
:101B200000F20C400690109806990880FFE7FFE746
:101B3000FFE71398006812994A694989BDF8403057
:101B400000911146009A05F09FFFFFE7FFE7FFE7CE
:101B5000FFE7139800681299097830F8210048F6D9
:101B6000BF710840ADF80A00BDF80A0080F010000F
:101B7000ADF80A00BDF80A0080F02000ADF80A00B8
:101B8000BDF80A0048F28001084313990968129AC7
:101B9000127821F82200FFE7002014B080BD000079
:101BA00082B00A4601908DF8031001989DF8031049
:101BB00001F0070101EB810100EBC100D0F88401C5
:101BC00002B0704710B586B09C4696460C4604900D
:101BD0008DF80F10ADF80C208DF80B30002001901F
:101BE0009DF80F00000600280FD5FFE704989DF828
:101BF0000F1001F0070101EB810100EBC10028305B
:101C000000900098012141700FE004989DF80F109A
:101C100001F0070101EB810100EBC10000F5B47098
:101C20000090009800214170FFE79DF80F0000F040
:101C3000070000990870BDF80C00009908619DF834
:101C40000B000099C87000984078002804D0FFE786
:101C500000980178C181FFE79DF80B00022804D1AC
:101C6000FFE7009800210171FFE7FFE70498D0F833
:101C7000A802012803D1FFE70220059013E0049891
:101C80000121C0F8A812FFE7FFE704980068009957
:101C900004F02CF9FFE704980021C0F8A812FFE730
:101CA00001980590FFE7059806B010BD80B586B095
:101CB0008C4605908DF813100392029305989DF8B9
:101CC000131001F0070101EB810100EBC10000F5E9
:101CD000B470019003980199486102980199886154
:101CE00001980021C161019841709DF8130000F036
:101CF0000700019908709DF813004007002806D1DD
:101D0000FFE705980068019904F0FEFE05E00598DC
:101D10000068019904F0F8FEFFE7002006B080BDDE
:101D200080B586B00A4604908DF80F109DF80F001C
:101D300000F0070004994968884203D9FFE70120B1
:101D4000059059E09DF80F00000600280FD5FFE729
:101D500004989DF80F1001F0070101EB810100EBE1
:101D6000C100283002900298012141700DE00498D2
:101D70009DF80F1001EB810100EBC10000F5B4707C
:101D80000290029800214170FFE7029801218170C2
:101D90009DF80F0000F0070002990870FFE7049813
:101DA000D0F8A802012803D1FFE70220059023E024
:101DB00004980121C0F8A812FFE7FFE70498006823
:101DC000029904F05BFE9DF80F10490700290AD123
:101DD000FFE70498016800F52D700190084601990D
:101DE00004F0A2FDFFE7FFE704980021C0F8A81265
:101DF000FFE700200590FFE7059806B080BD0000D2
:101E000080B586B08C4605908DF81310039202932E
:101E100005989DF8131001F0070101EB810100EB1B
:101E2000C1002830019003980199486102980199F6
:101E300088610198012180F824100298019A1062AB
:101E400001980022C261019841709DF8130000F0D2
:101E50000700019908709DF813004007002806D17B
:101E6000FFE705980068019904F04EFE05E005982B
:101E70000068019904F048FEFFE7002006B080BD2D
:101E800080B586B005900598006805F08FFD0004C8
:101E9000002804D5FFE7059801F0EAFDFFE7059863
:101EA000006805F083FD4005002810D5FFE7059880
:101EB0000068B0F8441021F48061A0F8441005983F
:101EC00000F032FA0598002100F05EFAFFE705986D
:101ED000006805F06BFD4004002809D5FFE7059870
:101EE0000068B0F8441021F48041A0F84410FFE7E6
:101EF0000598006805F05AFD8004002809D5FFE721
:101F000005980068B0F8441021F40051A0F844107E
:101F1000FFE70598006805F049FDC00400281CD5BE
:101F2000FFE705980068B0F8401021F00401A0F820
:101F3000401005980068B0F8401021F00801A0F8A2
:101F40004010059800F00CFA05980068B0F84410AD
:101F500021F48051A0F84410FFE70598006805F0CF
:101F600025FD0005002872D5FFE700208DF803004D
:101F7000FFE79DF80300072812D8FFE705980068DF
:101F80009DF8031030F821009DF8031001AA22F8F3
:101F90001100FFE79DF8030001308DF80300E8E72A
:101FA00005980068B0F8401041F00101A0F8401019
:101FB00005980068B0F8401021F00101A0F8401029
:101FC000FFE705980068B0F844004005002801D4F8
:101FD000FFE7F6E705980068B0F8441021F4806147
:101FE000A0F8441000208DF80300FFE79DF80300DF
:101FF000072810D8FFE79DF8030001A931F8101059
:10200000059A126822F82010FFE79DF803000130BE
:102010008DF80300EAE705980068B0F8401041F039
:102020000801A0F8401005980068B0F8441021F4A9
:102030000061A0F8441005980068B0F8401041F025
:102040000401A0F84010059800F00AFAFFE705988F
:10205000006805F0ABFC800500280CD5FFE705986B
:102060000068B0F8441021F40071A0F844100598FD
:1020700000F080F9FFE70598006805F097FCC005BF
:10208000002809D5FFE705980068B0F8441021F44E
:102090008071A0F84410FFE706B080BD2DE9F04143
:1020A0008CB00A900A98002803D1FFE701200B901A
:1020B0000EE10A98D0F8AC02002808D1FFE70A9890
:1020C0000021C0F8A8120A9800F006F9FFE70A9864
:1020D0000321C0F8AC120A98006804F015FC0A99B4
:1020E0000A684B68D1F808C0D1F80CE00C694D695A
:1020F0008E69CF69096AE846C8F81010C8F80C70F4
:10210000C8F80860C8F80450C8F8004008901046A5
:1021100019466246734604F0F3F9002807D0FFE73A
:102120000A980221C0F8AC1201200B90D0E00A9866
:1021300000680021079105F08FFC07998DF82710A2
:10214000FFE79DF827000A994968884244D2FFE7D3
:102150000A989DF8271001EB810100EBC1000121D5
:1021600080F829109DF827000A9900EB800201EB06
:10217000C20181F828009DF827000A9900EB80022F
:1021800001EBC201C8860A989DF8271001EB810176
:1021900000EBC100002180F82B100A989DF8272041
:1021A00002EB820200EBC20081630A989DF82720AF
:1021B00002EB820200EBC200C1630A989DF827205F
:1021C00002EB820200EBC2000164FFE79DF82700EA
:1021D00001308DF82700B4E700208DF82700FFE7D5
:1021E0009DF827000A99496888423ED2FFE70A987D
:1021F0009DF8271001EB810100EBC100002180F860
:1022000069119DF827000A9A00EB800302EBC302D4
:1022100082F868010A989DF8272002EB820200EB01
:10222000C20080F86B110A989DF8272002EB820209
:1022300000EBC200C0F878110A989DF8272002EB45
:10224000820200EBC200C0F87C110A989DF827209A
:1022500002EB820200EBC200C0F88011FFE79DF89C
:10226000270001308DF82700BAE70A980168426814
:102270008368D0F80CC0D0F810E044698569C6695D
:10228000006A6F463861FE60BD607C60C7F800E0A0
:10229000084611461A46634604F00CFB002807D096
:1022A000FFE70A980221C0F8AC1201200B900FE062
:1022B0000A98002180F824100A980122C0F8AC2264
:1022C0000A980068069104F0EFFA06990B91FFE76F
:1022D0000B980CB0BDE8F08180B584B003900398F2
:1022E000006845F60041C4F2000188421AD1FFE7B8
:1022F000FFE741F21C00C4F20200016841F4000152
:102300000160006800F4000002900298FFE71420CA
:10231000002101900091009AFEF73CFF0198FEF722
:1023200031FFFFE704B080BD80B584B00390012089
:10233000029003988068022803D0FFE7FDF7ACFF06
:10234000FFE70398D0F8EC02029903F02BF9039908
:10235000D1F8EC120190084603F0B0F804B080BD4B
:1023600080B582B001900198D0F8EC0203F0EEF84D
:1023700002B080BD80B582B001900198D0F8EC0227
:1023800003F0F6F802B080BD80B584B00A46029032
:102390008DF80710FFE70298D0F8A802012803D1B2
:1023A000FFE70220039019E002980121C0F8A8126B
:1023B000FFE7FFE79DF80700029981F824000298E3
:1023C00000689DF8071005F04DFBFFE7029800211B
:1023D000C0F8A812FFE700200390FFE7039804B0BD
:1023E00080BD000080B582B001900198D0F8EC1259
:1023F00000F52D7000900846009903F0F7F802B040
:1024000080BD000080B584B00290FFE70298D0F84C
:10241000A802012803D1FFE7022003901DE00298E3
:102420000121C0F8A812FFE7FFE70298006805F055
:10243000A5FA02990122019008461146FEF710FF05
:102440000298006804F02AFAFFE702980021C0F819
:10245000A812FFE700200390FFE7039804B080BDB7
:1024600080B582B001900198D0F8EC0203F02EF90B
:1024700001998969002909D0FFE74EF61050CEF284
:102480000000016841F006010160FFE702B080BD75
:1024900080B586B0049000200390029004980078E4
:1024A000C007002800F0A980FFE70020019041F25A
:1024B0001C00C4F202000068C000002812D4FFE72C
:1024C000FFE741F21C00C4F20200016841F08051B4
:1024D0000160006800F0805000900098FFE7012044
:1024E0000190FFE747F20000C4F200000068C00559
:1024F000002821D4FFE747F20000C4F20000016881
:1025000041F480710160FEF7BBF80390FFE747F2EA
:102510000000C4F200000068C00500280BD4FFE7EB
:10252000FEF7AEF80399401A652803D3FFE70320AE
:10253000059089E0EBE7FFE741F22000C4F20200DA
:10254000006800F440700290029800283CD0FFE739
:1025500002980499496801F44071884234D0FFE739
:1025600041F22000C4F20200016821F4407102919E
:1025700040F24041C4F2422101220A6000220A6076
:10258000029901609DF80800C00700281BD0FFE7F2
:10259000FEF776F80390FFE741F22000C4F2020054
:1025A0000068800700280DD4FFE7FEF769F803995B
:1025B000401A41F28931884203D3FFE70320059096
:1025C00042E0E9E7FFE7FFE741F22000C4F2020042
:1025D000016821F44071049A526811430160019826
:1025E000012809D1FFE741F21C00C4F20200016892
:1025F00021F080510160FFE7FFE704980078800731
:1026000000280CD5FFE741F20400C4F20200016883
:1026100021F44041049A926811430160FFE7049855
:102620000078C00600280CD5FFE741F20400C4F290
:102630000200016821F48001049AD268114301600C
:10264000FFE700200590FFE7059806B080BD000079
:1026500080B584B0029001910298002803D1FFE771
:102660000120039014E1019842F20001C4F202013A
:10267000096801F00701884215D9FFE742F200001E
:10268000C4F20200016821F00701019A11430160C0
:10269000006800F007000199884203D0FFE701209D
:1026A0000390F5E0FFE702980078800700282AD51C
:1026B000FFE7029800784007002809D5FFE741F2BC
:1026C0000400C4F20200016841F4E0610160FFE728
:1026D000029800780007002809D5FFE741F20400BE
:1026E000C4F20200016841F460510160FFE741F269
:1026F0000400C4F20200016821F0F001029A92681D
:1027000011430160FFE702980078C00700285CD001
:10271000FFE70298406801280DD1FFE741F2000071
:10272000C4F2020000688003002803D4FFE7012000
:102730000390ADE01FE00298406802280DD1FFE74A
:1027400041F20000C4F2020000688001002803D4B6
:10275000FFE7012003909BE00CE041F20000C4F28F
:10276000020000688007002803D4FFE701200390DF
:102770008EE0FFE7FFE741F20400C4F202000168C7
:1027800021F00301029A526811430160FDF778FFBE
:102790000090FFE741F20400C4F20200006800F07C
:1027A0000C0002994968B0EB810F0DD0FFE7FDF7EF
:1027B00067FF0099401A41F28931884203D3FFE74D
:1027C0000320039064E0E5E7FFE7019842F200018F
:1027D000C4F20201096801F00701884215D2FFE73F
:1027E00042F20000C4F20200016821F00701019AE0
:1027F00011430160006800F007000199884203D08E
:10280000FFE70120039043E0FFE7029800784007CC
:1028100000280CD5FFE741F20400C4F20200016871
:1028200021F4E061029AD26811430160FFE7029847
:102830000078000700280DD5FFE741F20400C4F23C
:102840000200016821F46051029A126941EAC20152
:102850000160FFE700F038F841F20401C4F2020120
:102860000968C9B2090947F62842C0F60002515C5E
:10287000C84040F21C01C2F20001086040F278102A
:10288000C2F200000068FEF715FC00210391FFE78B
:10289000039804B080BD000040F21C00C2F20000AA
:1028A0000068704780B5FFF7F7FF41F20401C4F2FA
:1028B00002010968C1F3022147F63842C0F600025E
:1028C000515CC84080BD00008BB040F60E70C1F274
:1028D00010000A9040F60A30C0F60C50099040F201
:1028E0000670C0F60810089040F20230C0F20450A2
:1028F000079040F20120ADF81A00002005900490E6
:1029000003900290019041F20400C4F202000068BA
:102910000590059800F00C000146002800913DD07C
:10292000FFE70098042804D0FFE70098082806D0A5
:1029300035E041F20020C0F27A00019035E00598C0
:10294000C0F3834007A9085C02909DF81600C007F9
:10295000002818D0FFE741F20400C4F2020000682A
:1029600000F400300DF11A0141EA50400078049063
:10297000029841F20021C0F27A0148430499B0FB69
:10298000F1F0039007E0029840F60011C0F23D011B
:1029900048430390FFE70398019006E0FFE741F208
:1029A0000020C0F27A000190FFE701980BB0704759
:1029B00080B586B004900498002803D1FFE7012079
:1029C000059020E304980078C007002800F0AE804E
:1029D000FFE741F20400C4F20200006800F00C00BE
:1029E000042813D0FFE741F20400C4F2020000689B
:1029F00000F00C0008281BD1FFE741F20400C4F2EC
:102A000002000068C003002812D5FFE741F2000071
:102A1000C4F2020000688003002808D5FFE704988C
:102A20004068002803D1FFE701200590EBE27CE03D
:102A3000FFE704984068B0F5803F09D1FFE741F215
:102A40000000C4F20200016841F48031016033E00B
:102A50000498406800280DD1FFE741F20000C4F25D
:102A60000200016821F480310160016821F48021B5
:102A7000016020E004984068B0F5A02F0DD1FFE779
:102A800041F20000C4F20200016841F480210160BB
:102A9000016841F4803101600CE041F20000C4F2B1
:102AA0000200016821F480310160016821F4802175
:102AB0000160FFE7FFE7FFE7FFE7049840680028B1
:102AC00019D0FFE7FDF7DCFD0390FFE741F20000BE
:102AD000C4F202000068800300280BD4FFE7FDF772
:102AE000CFFD0399401A652803D3FFE70320059023
:102AF00089E2EBE718E0FDF7C3FD0390FFE741F241
:102B00000000C4F202000068800300280BD5FFE734
:102B1000FDF7B6FD0399401A652803D3FFE70320AC
:102B2000059070E2EBE7FFE7FFE7FFE70498007826
:102B30008007002840F18B80FFE741F20400C4F2D7
:102B40000200006810F00C0F13D0FFE741F2040000
:102B5000C4F20200006800F00C00082828D1FFE74A
:102B600041F20400C4F202000068C00300281FD430
:102B7000FFE741F20000C4F202000068800700286D
:102B800008D5FFE704980069012803D0FFE701207A
:102B9000059038E241F20000C4F20200016821F021
:102BA000F801049A526941EAC2010160FFE74DE071
:102BB0000498006900282AD0FFE70020C4F24220D0
:102BC00001210160FDF75CFD0390FFE741F2000089
:102BD000C4F202000068800700280BD4FFE7FDF76D
:102BE0004FFD0399401A032803D3FFE70320059004
:102BF00009E2EBE741F20000C4F20200016821F0B3
:102C0000F801049A526941EAC20101601DE0002006
:102C1000C4F2422000210160FDF732FD0390FFE77E
:102C200041F20000C4F202000068800700280BD5C2
:102C3000FFE7FDF725FD0399401A032803D3FFE7BB
:102C400003200590DFE1EBE7FFE7FFE7FFE70498EC
:102C500000780007002847D5FFE70498806900281E
:102C600022D0FFE740F28040C4F2422001210160FF
:102C7000FDF706FD0390FFE741F22400C4F20200D5
:102C80000068800700280BD4FFE7FDF7F9FC0399E3
:102C9000401A032803D3FFE703200590B3E1EBE7D5
:102CA000012001F0DBF91EE040F28040C4F2422036
:102CB00000210160FDF7E4FC0390FFE741F22400EE
:102CC000C4F202000068800700280BD5FFE7FDF77B
:102CD000D7FC0399401A032803D3FFE7032005908C
:102CE00091E1EBE7FFE7FFE7049800784007002851
:102CF00040F1D480FFE70020019041F21C00C4F2B3
:102D000002000068C000002812D4FFE7FFE741F28C
:102D10001C00C4F20200016841F0805101600068AB
:102D200000F0805000900098FFE701200190FFE73D
:102D300047F20000C4F200000068C005002821D45A
:102D4000FFE747F20000C4F20000016841F480711F
:102D50000160FDF795FC0390FFE747F20000C4F225
:102D600000000068C00500280BD4FFE7FDF788FCD1
:102D70000399401A652803D3FFE70320059042E139
:102D8000EBE7FFE7FFE70498C068012809D1FFE7F8
:102D900041F22000C4F20200016841F0010101602B
:102DA00032E00498C06800280DD1FFE741F220000E
:102DB000C4F20200016821F001010160016821F004
:102DC000040101601FE00498C06805280DD1FFE7E9
:102DD00041F22000C4F20200016841F004010160E8
:102DE000016841F0010101600CE041F22000C4F2F1
:102DF0000200016821F001010160016821F0040175
:102E00000160FFE7FFE7FFE7FFE70498C0680028DD
:102E10001BD0FFE7FDF734FC0390FFE741F22000F1
:102E2000C4F202000068800700280DD4FFE7FDF718
:102E300027FC0399401A41F28931884203D3FFE706
:102E400003200590DFE0E9E71AE0FDF719FC0390A5
:102E5000FFE741F22000C4F202000068800700286A
:102E60000DD5FFE7FDF70CFC0399401A41F28931BB
:102E7000884203D3FFE703200590C4E0E9E7FFE7BA
:102E80000198012809D1FFE741F21C00C4F20200B9
:102E9000016821F080510160FFE7FFE70498C069F5
:102EA000002800F0AD80FFE741F20400C4F2020008
:102EB000006800F00C0008287ED0FFE70498C06985
:102EC00002285AD1FFE76020C4F2422000210160AD
:102ED000FDF7D6FB0390FFE741F20000C4F20200C9
:102EE0000068800100280BD5FFE7FDF7C9FB0399B7
:102EF000401A032803D3FFE70320059083E0EBE7A4
:102F00000498006AB0F5803F0CD1FFE741F204005D
:102F1000C4F20200016821F40031049A926811435E
:102F20000160FFE741F20400C4F20200016821F4ED
:102F30007411049A136A526A1A43114301606020A3
:102F4000C4F2422001210160FDF79AFB0390FFE7E4
:102F500041F20000C4F202000068800100280BD496
:102F6000FFE7FDF78DFB0399401A032803D3FFE722
:102F70000320059047E0EBE71DE06020C4F242200B
:102F800000210160FDF77CFB0390FFE741F20000A8
:102F9000C4F202000068800100280BD5FFE7FDF7AE
:102FA0006FFB0399401A032803D3FFE70320059022
:102FB00029E0EBE7FFE722E00498C069012803D18C
:102FC000FFE7012005901EE041F20400C4F2020078
:102FD00000680290029800F480300499096A8842DF
:102FE00008D1FFE7029800F470100499496A8842FA
:102FF00003D0FFE70120059005E0FFE7FFE7FFE7CB
:1030000000200590FFE7059806B080BD80B582B02E
:103010000190019801F042F802B080BDFFE7FEE7A1
:1030200082B0009000980068406900F4806001213F
:10303000B1EB902F1AD1FFE7009800686FF4806120
:1030400041610098002101630098202202640098E9
:1030500041640098816C41F004018164FFE70098AD
:103060000021C163FFE70120019002E000200190F0
:10307000FFE7019802B0704780B588B08C46069093
:10308000ADF81610049203930698C06A0290069851
:103090000068016841F4806101600298082809D045
:1030A000FFE70298012805D0FFE7029810F5803F5E
:1030B00007D1FFE706980068016841F4807101605C
:1030C0000DE00698006B112807D1FFE7069800680D
:1030D000016841F48071016000E0FFE7FFE70698B6
:1030E000049B03996A4611604FF00111002200F021
:1030F00067F900280FD0FFE7069800680068C00550
:10310000002805D5FFE706984FF400718164FFE7BA
:103110000320079081E006980069B0F5804F08D140
:10312000FFE79DF8160040F0010006990968086164
:1031300062E0BDF8160000F44070C009F030069956
:10314000096808610698049A039B0821C0F20101EE
:1031500000F090F9002803D0FFE7012007905CE021
:103160009DF816000699096808610698049A039B61
:103170000221C0F2010100F07DF9002803D0FFE731
:103180000120079049E0FFE70020019006980068C1
:103190004069019006980068806901900198FFE7F6
:1031A00006980068016841F4807101600698049BEC
:1031B00003996A4611604FF00111002200F000F9F6
:1031C00000280FD0FFE7069800680068C0050028B7
:1031D00005D5FFE706984FF400718164FFE70320EF
:1031E00007901AE0BDF8160000F44070C009F130F5
:1031F000069909680861FFE70698049A039B022173
:10320000C0F2010100F036F9002803D0FFE70120E9
:10321000079002E000200790FFE7079808B080BD04
:1032200080B588B08C460690ADF8161004920393D2
:103230000698C06A02900298082809D0FFE7029811
:10324000012805D0FFE7029810F5803F07D1FFE77E
:1032500006980068016841F4807101600DE00698ED
:10326000006B122807D1FFE706980068016841F457
:103270008071016000E0FFE7FFE70698049B039977
:103280006A4611604FF00111002200F099F8002801
:103290000FD0FFE7069800680068C005002805D534
:1032A000FFE706984FF400718164FFE70320079061
:1032B0003BE006980069B0F5804F08D1FFE7BDF804
:1032C000160000F0FE000699096808611CE0BDF8D0
:1032D000160000F44070C009F030069909680861D2
:1032E0000698049A039B0821C0F2010100F0C2F87D
:1032F000002803D0FFE70120079016E09DF8160094
:10330000069909680861FFE70698049A039B022161
:10331000C0F2010100F0AEF8002803D0FFE7012061
:10332000079002E000200790FFE7079808B080BDF3
:1033300080B584B0029001910092FFE70298006886
:10334000406900F004000021B1EB900F31D1FFE79C
:103350000298FFF765FE002803D0FFE701200390E5
:103360002AE001980130002822D0FFE7FDF788F914
:103370000099401A0199884204D8FFE70198002873
:1033800015D1FFE702980021016302982022026410
:10339000029841640298816C41F020018164FFE74A
:1033A00002980021C163FFE70120039004E0FFE7DA
:1033B000C4E700200390FFE7039804B080BD00003D
:1033C00080B586B0DDF820C004900391029201938D
:1033D000FFE79DF80E0001280CD1FFE70498006874
:1033E0004069BDF80C100840401AB0FA80F040095E
:1033F00000900BE0049800688069BDF80C1008404C
:10340000401AB0FA80F040090090FFE70098029956
:10341000884228D1FFE701980130002822D0FFE739
:10342000FDF72EF90899401A0199884204D8FFE760
:103430000198002815D1FFE7049800210163049842
:1034400020220264049841640498816C41F02001B8
:103450008164FFE704980021C163FFE70120059024
:1034600004E0FFE7B5E700200590FFE7059806B008
:1034700080BD000080B586B0049003910292019354
:10348000FFE79DF80E0001280CD1FFE704980068C3
:103490004069BDF80C100840401AB0FA80F04009AD
:1034A00000900BE0049800688069BDF80C1008409B
:1034B000401AB0FA80F040090090FFE70098002819
:1034C00052D1FFE704980068406900F48060012150
:1034D000B1EB902F20D1FFE704980068016841F418
:1034E00000710160049800686FF480614161049884
:1034F0000021016304982022026404984164049826
:10350000816C41F004018164FFE704980021C163EC
:10351000FFE7012005902AE002980130002822D020
:10352000FFE7FDF7ADF80199401A0299884204D8E7
:10353000FFE70298002815D1FFE7049800210163F6
:10354000049820220264049841640498816C41F03C
:1035500020018164FFE704980021C163FFE7012097
:10356000059004E0FFE78CE700200590FFE7059851
:1035700006B080BD80B584B0029001910092FFE753
:1035800002980068406900F040000021B1EB901FF4
:1035900044D1FFE702980068406900F01000012163
:1035A000B1EB101F18D1FFE7029800686FF010010F
:1035B000416102980021016302982022026402986E
:1035C00041640298816C8164FFE702980021C16325
:1035D000FFE70120039024E0FDF752F80099401A1C
:1035E0000199884204D8FFE70198002815D1FFE728
:1035F000029800210163029820220264029841642B
:103600000298816C41F020018164FFE7029800215B
:10361000C163FFE70120039003E0B1E700200390BE
:10362000FFE7039804B080BD80B584B0029001919B
:103630000092FFE7029800684069C0B20021B1EB38
:10364000D01F31D1FFE70298FFF7EAFC002803D032
:10365000FFE7012003902AE001980130002822D0E2
:10366000FFE7FDF70DF80099401A0199884204D848
:10367000FFE70198002815D1FFE7029800210163B8
:10368000029820220264029841640298816C41F001
:1036900020018164FFE702980021C163FFE7012058
:1036A000039004E0FFE7C5E700200390FFE70398DD
:1036B00004B080BD83B01346029001918DF80320C1
:1036C00000208DF80200FFE79DF802009DF803102E
:1036D000884229DAFFE70298000F092809D8FFE796
:1036E0000298000F303001999DF8022001F8120075
:1036F00009E00298372101EB107001999DF8022032
:1037000001F81200FFE702980001029001989DF86D
:10371000021000EB410000214170FFE79DF802001C
:1037200001308DF80200CFE703B0704780B588B054
:103730000790079A68203B210E2300F057F80020DD
:103740000290FFE7029802280DDCFFE702980DF1D6
:103750000E0101EB40014978079A1154FFE70298E6
:1037600001300290EEE704200190FFE7019806285F
:103770000FDCFFE701980DF10E0101EB40014978E4
:10378000079A104400F8011CFFE7019801300190EE
:10379000ECE708B080BD000080B586B06B208DF8E6
:1037A000110000208DF8120068200DF11101022295
:1037B00003900291019200F061F81B208DF8110036
:1037C00008208DF8120003980299019A00F056F82B
:1037D0001C208DF8110010208DF81200039802991A
:1037E000019A00F04BF806B080BD000010B588B01B
:1037F0009C468E4604468DF81F008DF81E100692DA
:103800008DF817309DF81F000DF11E010122CDF833
:1038100010C0CDF80CE0029400F030F8FFE79DF8FE
:103820001F004100069A9DF8173068464FF0640C5F
:10383000C0F800C041F25800C2F20000FDF786F85F
:1038400000280DD0FFE741F25800C2F20000FCF75B
:103850001DFF042803D0FFE7FCF71EFDFFE7DEE7AE
:10386000FFE741F25800C2F20000FCF715FF2028E4
:1038700001D0FFE7F5E708B010BD000080B584B0C7
:10388000134684468DF80F0002918DF80720FFE75C
:103890009DF80F004100029A9DF8073068464FF0EE
:1038A000640CC0F800C041F25800C2F20000FDF7FD
:1038B00099FA002803D0FFE7FCF7EEFCE8E7FFE702
:1038C00041F25800C2F20000FCF7E6FE202801D0C9
:1038D000FFE7F5E704B080BD83B0FFE741F21800D1
:1038E000C4F20200016841F020010160006800F0AC
:1038F000200002900298FFE7FFE741F21800C4F2AF
:103900000200016841F004010160006800F0040059
:1039100001900198FFE7FFE741F21800C4F20200AE
:10392000016841F008010160006800F008000090A3
:103930000098FFE703B0704780B541F25800C2F22B
:10394000000045F20041C4F2000101604FF47A71B9
:10395000416000218160C1604FF480420261416199
:103960008161C1610162FCF79DFE002803D0FFE781
:10397000FCF792FCFFE780BD80B540F69450C2F2A0
:10398000000040F20001C2F20001002201F000FB41
:10399000002803D0FFE7FCF77FFCFFE740F69450D8
:1039A000C2F2000040F22001C2F2000101F0E2FE8A
:1039B000002803D0FFE7FCF76FFCFFE740F69450C8
:1039C000C2F2000040F24411C2F2000100F0C6FD54
:1039D000002803D0FFE7FCF75FFCFFE740F69450B8
:1039E000C2F2000002F00CF8002803D0FFE7FCF759
:1039F00053FCFFE780BD0000FFE7FEE7FFE7FEE7BF
:103A000088B0079006910592079800F0070004908F
:103A10000498C0F10700052803D3FFE704200190B4
:103A200004E00498C0F107000190FFE701980390BB
:103A300004980430062803D8FFE70020009003E034
:103A4000049803380090FFE70098029006980399C5
:103A5000012202FA01F10139084002998840059BD0
:103A600002FA01F101391940084308B0704700001B
:103A700080B592B01190FFE711980068B0F844004B
:103A80000004002840F1E482FFE711980068B0F8D4
:103A90004400ADF83C00BDF83C0000F00F008DF88C
:103AA00037009DF83700002840F05381FFE7BDF84C
:103AB0003C00C006002848D4FFE7FFE711980068E3
:103AC000008848F60F710840ADF83400BDF83400A6
:103AD00040F40040119909680880FFE711982830E8
:103AE000109011980068B0F8500010990A7800EB17
:103AF000C200119A126802EB4000B0F804046FF3A0
:103B00009F20C86110984169C269114441611198B0
:103B10000021FDF7B3FB119890F82400002813D082
:103B2000FFE71098806900280ED1FFE7119890F800
:103B3000240040F0800011990968A1F84C00119808
:103B4000002180F82410FFE702E1119800F5B4701D
:103B50001090119800680088ADF83A00BDF83A005E
:103B60000005002835D5FFE711980068B0F850002F
:103B700010990A7800EBC200119A126802EB40001B
:103B8000B0F80C046FF39F20C8611198016800F52C
:103B90002D70109AD388928B06900846069905924C
:103BA0001A46059B03F00CFFFFE711980068008898
:103BB00040F68F710840ADF83200BDF8320040F099
:103BC0008000119909680880FFE71198FEF70AFC48
:103BD000BDE0BDF83A000004002840F1B780FFE7DF
:103BE000FFE711980068008840F68F710840ADF833
:103BF0003000BDF8300040F080001199096808805D
:103C0000FFE711980068B0F8500010990A7800EBAF
:103C1000C200119A126802EB4000B0F80C046FF376
:103C20009F20C8611098C06900281BD0FFE710983A
:103C30004069002816D0FFE71198006810994A697A
:103C4000CB88898B049111461A46049B03F0B8FE79
:103C500010984169C2691144416111980021FDF732
:103C600027FBFFE7FFE7119800680B9011980068A9
:103C7000B0F850000B9908440B900B9800F20C40E0
:103C80000A90FFE71098006900280BD1FFE70A9817
:103C9000018821F4F84101800A98018841F400412B
:103CA000018032E0109800693E2815D8FFE7FFE751
:103CB00010980069400809901098007CC0070028FF
:103CC00004D0FFE7099801300990FFE709988002C6
:103CD0000A990880FFE717E0FFE71098006940099C
:103CE00009901098007CC006002804D1FFE70998CD
:103CF00001380990FFE709984FF4004141EA80201C
:103D00000A990880FFE7FFE7FFE7FFE7FFE7FFE724
:103D10001198006800884BF68F710840ADF82200BA
:103D2000BDF8220080F48050ADF82200BDF82200DA
:103D300080F40050ADF82200BDF8220048F2800166
:103D40000843119909680880FFE7FFE7FFE7FFE7ED
:103D50007DE1119800689DF8371030F82100ADF82A
:103D60003A00BDF83A000004002840F1EF80FFE778
:103D7000FFE7119800689DF8371030F8210040F6F1
:103D80008F710840ADF82000BDF8200040F08000A1
:103D9000119909689DF8372021F82200FFE7119852
:103DA0009DF8371001EB810100EBC10000F5B47004
:103DB00010901098007B002825D1FFE7119800682B
:103DC000B0F850001099097800EBC100119909680A
:103DD00001EB4000B0F80C046FF39F20ADF83E00FB
:103DE000BDF83E0000280DD0FFE71198006810993B
:103DF0004A69C988BDF83E3003911146039A03F021
:103E0000DFFDFFE77DE01098C078022809D1FFE7C9
:103E100011981099BDF83A20FDF71AFBADF83E0055
:103E20006EE0FFE7FFE7119800681099097830F815
:103E3000210048F68F710840ADF81E00BDF81E0045
:103E400048F2C001084311990968109A127821F8C4
:103E50002200FFE7FFE7119800681099097830F811
:103E600021004004002825D5FFE711980068B0F82C
:103E700050001099097800EBC1001199096801EB15
:103E80004000B0F804046FF39F20ADF83E00BDF889
:103E90003E0000280DD0FFE71198006810994A698C
:103EA0000989BDF83E3002911146029A03F088FD5F
:103EB000FFE724E011980068B0F8500010990978E5
:103EC00000EBC1001199096801EB4000B0F80C0447
:103ED0006FF39F20ADF83E00BDF83E0000280DD0E6
:103EE000FFE71198006810994A694989BDF83E308A
:103EF00001911146019A03F063FDFFE7FFE7FFE739
:103F0000FFE7BDF83E001099CA691044C861BDF8CA
:103F10003E0010994A691044486110988069002851
:103F200007D0FFE7BDF83E0010990969884206D224
:103F3000FFE7119810990978FDF7BAF905E0119893
:103F40000068109902F0E0FDFFE7FFE7BDF83A00D6
:103F5000000600287AD5FFE711989DF8371001EB8D
:103F6000810100EBC10028301090FFE71198006834
:103F70009DF8371030F8210048F60F710840ADF871
:103F80001C00BDF81C0040F40040119909689DF820
:103F9000372021F82200FFE71098C07802280BD1C3
:103FA000FFE71098C078022848D1FFE7BDF83A0033
:103FB000C005002842D4FFE711980068B0F850000F
:103FC0001099097800EBC1001199096801EB4000D4
:103FD000B0F804046FF39F20ADF8380010988069A2
:103FE000BDF83810884207D9FFE7BDF838001099AE
:103FF0008A69101A886103E0109800218161FFE747
:1040000010988069002806D1FFE711981099097867
:10401000FDF734F911E0BDF8380010994A691044F1
:104020004861BDF838001099CA691044C8611198F8
:104030000068109902F068FDFFE706E011981099FA
:10404000BDF83A20FDF70EFBFFE7FFE7FFE713E5BA
:10405000002012B080BD00007047000082B00190C7
:10406000019840F21C01C2F200010968C90844F637
:10407000D352C1F26202A1FB021292095043009096
:10408000FFE700BFFFE70098411E00910028F8D12C
:10409000FFE702B0704700007047000080B582B0B3
:1040A000009000980138B0F1807F03D3FFE7012032
:1040B000019019E0009801384EF21401CEF200018F
:1040C00008604FF0FF300F2103F040FD4EF2180062
:1040D000CEF20000002101604EF21000CEF200008E
:1040E000072202600191FFE7019802B080BD000045
:1040F00080B5FCF7B9FF80BD80B596B00CA828212B
:104100000290FCF716F800200B900A900990089096
:104110000790069005900490039001210C914FF4B4
:1041200080320D920E9010910220139014924FF451
:10413000E01015900298FEF73BFC002803D0FFE743
:10414000FCF7AAF8FFE70F20079002200890002153
:1041500009914FF480620A920B9107A901900846D9
:104160000199FEF775FA002803D0FFE7FCF794F8F1
:10417000FFE7102003900020069003A8FEF788F9BF
:10418000002803D0FFE7FCF787F8FFE716B080BDF3
:104190007047000080B586B00A4604908DF80F1075
:1041A0000498D0F8B80202900498D0F8C0020190A8
:1041B0000498D0F8B80200283AD0FFE704989DF898
:1041C0000F1001EB810100EB8100C069002826D0AF
:1041D000FFE704989DF80F1001EB810100EB8100CF
:1041E000C069019A02EBC101896BB0FBF1F202FBDD
:1041F0001100002813D1FFE704989DF80F1001EB80
:10420000810100EB81000021C16104989DF80F201D
:1042100000911146009A009B01F066FA04E00298B2
:104220000021C0F81412FFE700208DF8170003E00A
:1042300002208DF81700FFE79DF8170006B080BD3B
:1042400080B586B00A4604908DF80F100498D0F817
:10425000B802029004989DF80F10019201F042F804
:104260000299C1F80C020498D0F8B802002811D0C5
:10427000FFE70498D0F8BC02C0680299D1F8042284
:1042800001F5037100901046009A904700218DF8C7
:10429000171003E002208DF81700FFE79DF81700C4
:1042A00006B080BD80B588B00A4607908DF81B1017
:1042B00000208DF81A0007998123059008461946B9
:1042C000049200F0B3FE0799059ACA620799012388
:1042D00003900846194600F0A9FE0799059AC1F80F
:1042E0006C210799822302900846194600F09EFE31
:1042F0000799059A0A640799D1F8B812002911D0D4
:10430000FFE70798D0F8BC02406880470799D1F8CA
:10431000B8120190084601F0DDFD07980021C0F8B1
:10432000B812FFE79DF81A0008B080BD80B584B0D0
:1043300003900398D0F8B80202900398D0F8BC021A
:10434000002819D0FFE7029890F80002FF2813D048
:10435000FFE70398D0F8BC028068029991F8002228
:1043600091F80132019010461A46019B9847029934
:10437000FF2281F80022FFE7002004B080BD00008A
:1043800081B0009000980A21018040F2E000C2F262
:10439000000001B07047000081B0009000984321F8
:1043A000018040F25800C2F2000001B070470000E6
:1043B00081B0009000984321018040F29C00C2F23D
:1043C000000001B07047000081B0009000984321C8
:1043D000018040F2EC00C2F2000001B07047000022
:1043E00080B58CB00A460B908DF82B1000208DF80C
:1043F0002A000B98006900281BD1FFE70B98812148
:1044000002224FF400730892079301F00BF80B9906
:104410000122CA620B99069008461146089B059234
:104420001A46079B00F0FEFF0B99059AC1F86C2114
:1044300019E00B988121022240230492039300F09B
:10444000F1FF0B990122CA620B99029008461146AE
:10445000049B01921A46039B00F0E4FF0B99019A1A
:10446000C1F86C21FFE70B9882210322082300F09A
:10447000D9FF0B9901220A644FF407710090084696
:1044800001F02CFD0B99C1F8B8020B98D0F8B802D6
:10449000002804D1FFE701208DF82A0028E00B98BE
:1044A000D0F8B80209900B98D0F8BC020068804799
:1044B00009990022C1F814220999C1F818220B9910
:1044C000096900290AD1FFE70B980999D1F804225C
:1044D00001214FF4007300F0CDFF08E00B9809991B
:1044E000D1F804220121402300F0C4FFFFE7FFE7D9
:1044F0009DF82A000CB080BD80B584B0029002986F
:10450000D0F8B80201900298D0F8B80200281CD068
:10451000FFE70298006900280AD1FFE70298019995
:10452000D1F8042201214FF4007300F0A3FF08E04A
:1045300002980199D1F804220121402300F09AFF4A
:10454000FFE700208DF80F0003E002208DF80F0038
:10455000FFE79DF80F0004B080BD000083B002901B
:10456000019102208DF803000198002808D0FFE790
:1045700001980299C1F8BC0200208DF80300FFE702
:104580009DF8030003B0704783B002900191029838
:10459000D0F8B802009001980099C1F804020020F8
:1045A00003B0704784B0134603900291ADF8062023
:1045B0000398D0F8B802009002980099C1F8080258
:1045C000BDF806000099C1F81002002004B0704741
:1045D00080B58CB00B900A910B98D0F8B802099076
:1045E00000208DF82300ADF820008DF81F000A98F8
:1045F000007800F060000146002806914AD0FFE7ED
:104600000698202840F09880FFE70A98C088002884
:1046100032D0FFE70A980078000600281AD5FFE795
:104620000B98D0F8BC0280680A994A78099BC9881F
:104630000590104604911946049A059B98470B99DA
:10464000099A0A9BDB880390084611461A4600F037
:104650003DF910E00A984078099981F800020A981B
:104660008079099981F801020B9809990A9AD288F0
:1046700000F0EEF8FFE70CE00B98D0F8BC02806881
:104680000A994A780023029010461A46029B9847DE
:10469000FFE759E00A98407801460028019108D0C8
:1046A000FFE701980A2819D0FFE701980B282BD0C3
:1046B00039E00B9890F89C02032806D1FFE70B988D
:1046C00008A9022200F002F907E00B980A9900F00D
:1046D000ADF802208DF81F00FFE72CE00B9890F852
:1046E0009C02032807D1FFE70B980DF1230101225B
:1046F00000F0ECF807E00B980A9900F097F8022018
:104700008DF81F00FFE716E00B9890F89C02032835
:1047100008D0FFE70B980A9900F088F802208DF87E
:104720001F00FFE707E00B980A9900F07FF80220CE
:104730008DF81F00FFE707E00B980A9900F076F864
:1047400002208DF81F00FFE79DF81F000CB080BD10
:1047500080B586B00A4605908DF813100598D0F8FC
:10476000B41249689DF8133003911946039B0292D5
:10477000984700210190084606B080BD80B582B000
:1047800001900091019890F89C02013802280ED8FF
:10479000FFE700984088012808D1FFE70198002131
:1047A000C0F8A412019800F0B9F8FFE704E00198FE
:1047B000009900F03BF8FFE702B080BD80B588B0FB
:1047C000134607900691ADF816200798069ABDF893
:1047D00016104FF0000C04916146DDF810E00393D1
:1047E0007346CDF808C000F045FE029901900846D6
:1047F00008B080BD80B588B0134607900691ADF82B
:1048000016200798069ABDF816104FF0000C049178
:104810006146DDF810E003937346CDF808C000F060
:1048200063FF02990190084608B080BD80B584B04E
:10483000039002910398802100F01AFF039900224F
:1048400001900846114600F013FF04B080BD00003F
:1048500080B588B0134607900691ADF816200798EA
:104860000321C0F89412BDF816000799C1F85C0145
:10487000BDF816000799C1F860010798069ABDF8BF
:1048800016104FF0000C04916146DDF810E0039320
:104890007346CDF808C000F0EDFD0299019008467E
:1048A00008B080BD80B584B0039003980521C0F89E
:1048B0009412039800210291029A029B00F0DAFD03
:1048C00002990190084604B080BD000080B588B010
:1048D000134607900691ADF8162007980221C0F8FC
:1048E0009412BDF816000799C861BDF81600079923
:1048F00008620798069ABDF816104FF0000C049154
:104900006146DDF810E003937346CDF808C000F06F
:10491000EBFE02990190084608B080BD80B584B0D6
:10492000039003980421C0F8941203980021029187
:10493000029A029B00F0D8FE02990190084604B04A
:1049400080BD000080B582B00190009101980028E0
:104950000CD1FFE7009A47F64E40C0F6000040F247
:104960008411C2F2000100F0B1FA0BE0009A47F6A0
:104970004E40C0F6000040F28411C2F2000100F087
:10498000A5FAFFE740F28410C2F2000002B080BD39
:1049900082B00190009100981221018040F2301005
:1049A000C2F2000002B0704780B582B00190009161
:1049B000019800280CD1FFE7009A47F64040C0F666
:1049C000000040F28411C2F2000100F07FFA0BE017
:1049D000009A47F64040C0F6000040F28411C2F24F
:1049E000000100F073FAFFE740F28410C2F2000009
:1049F00002B080BD82B00190009100980421018036
:104A000040F25410C2F2000002B0704780B584B08A
:104A100003900291029A47F65940C0F6000040F216
:104A20008411C2F20001019100F050FA019804B023
:104A300080BD000080B582B00190009101980028EF
:104A40000CD1FFE7009A47F66C40C0F6000040F238
:104A50008411C2F2000100F039FA0BE0009A47F627
:104A60006C40C0F6000040F28411C2F2000100F078
:104A70002DFAFFE740F28410C2F2000002B080BDC0
:104A800080B582B00190009100981A210180FBF757
:104A90000BFC40F25810C2F2000002B080BD0000D2
:104AA00080B584B0039002910298C088012805D097
:104AB000FFE703980299FFF7B9FE21E0039890F809
:104AC0009C02411E0229019004D3FFE701980328AC
:104AD0000AD00FE0039800218160039800F10801DB
:104AE0000122FFF7F3FE0AE00398011D0122FFF700
:104AF000EDFE04E003980299FFF798FEFFE7FFE759
:104B000004B080BD80B594B0139012910020ADF830
:104B1000460010908DF83F001298C0780138014689
:104B200006280E9100F248810E99DFE811F0070087
:104B300014003800450145010A0126011398D0F8F8
:104B4000B012096800690DF146020D9111460D9AE7
:104B5000904710903AE11398006900280FD1FFE7C1
:104B60001398D0F8B402806A0DF146010C90084603
:104B70000C99884710901098022141700EE013980C
:104B8000D0F8B402C06A0DF146010B9008460B99AB
:104B900088471090109802214170FFE716E11298A3
:104BA0008078014605280A9100F2C0800A99DFE862
:104BB00001F0032241607F9E1398D0F8B002406854
:104BC00000280DD0FFE71398D0F8B01249680069AB
:104BD0000DF1460209911146099A9047109009E09B
:104BE00013981299FFF722FE9DF83F0001308DF8CF
:104BF0003F00FFE7A4E01398D0F8B00280680028D7
:104C00000DD0FFE71398D0F8B012896800690DF154
:104C1000460208911146089A9047109009E01398AF
:104C20001299FFF703FE9DF83F0001308DF83F0019
:104C3000FFE785E01398D0F8B002C06800280DD0D7
:104C4000FFE71398D0F8B012C96800690DF1460269
:104C500007911146079A9047109009E0139812990E
:104C6000FFF7E4FD9DF83F0001308DF83F00FFE7BE
:104C700066E01398D0F8B002006900280DD0FFE775
:104C80001398D0F8B012096900690DF14602069137
:104C90001146069A9047109009E013981299FFF771
:104CA000C5FD9DF83F0001308DF83F00FFE747E06C
:104CB0001398D0F8B002406900280DD0FFE7139890
:104CC000D0F8B012496900690DF14602059111460C
:104CD000059A9047109009E013981299FFF7A6FDE6
:104CE0009DF83F0001308DF83F00FFE728E0139862
:104CF000D0F8B002806900280DD0FFE71398D0F8F3
:104D0000B012896900690DF1460204911146049AB6
:104D10009047109009E013981299FFF787FD9DF8CE
:104D20003F0001308DF83F00FFE709E0139812992A
:104D3000FFF77CFD9DF83F0001308DF83F00FFE755
:104D400044E01398006900280CD1FFE71398D0F8CD
:104D5000B402406B0DF14601039008460399884761
:104D6000109009E013981299FFF760FD9DF83F003D
:104D700001308DF83F00FFE728E013980069002814
:104D80000FD1FFE71398D0F8B402006B0DF1460184
:104D900002900846029988471090109807214170A8
:104DA00009E013981299FFF741FD9DF83F0001308B
:104DB0008DF83F00FFE709E013981299FFF736FDE1
:104DC0009DF83F0001308DF83F00FFE79DF83F0060
:104DD000002801D0FFE72CE0BDF8460000281ED0D7
:104DE000FFE71298C088002819D0FFE7BDF84600F9
:104DF0001299C988884204DAFFE7BDF8460001909D
:104E000003E01298C0880190FFE70198ADF84600D2
:104E100013981099BDF84620FFF758FDFFE7129848
:104E2000C088002804D1FFE71398FFF777FDFFE75C
:104E3000FFE714B080BD000082B0019000208DF823
:104E40000300FFE701980078002809D0FFE79DF8EC
:104E5000030001308DF80300019801300190F1E763
:104E60009DF8030002B0704780B582B001900091B8
:104E7000019890F89C020138022820D8FFE700989A
:104E8000C088022805D0FFE701980099FFF7CEFC03
:104E90001AE001980121C1600198D0F8A40200280D
:104EA00006D0FFE70198C16841F00201C160FFE749
:104EB000019800F10C010222FFF708FD04E00198BF
:104EC0000099FFF7B3FCFFE702B080BD80B584B066
:104ED00003900291019200208DF8030003980028AE
:104EE00034D0FFE70398FFF7A7FF022101EB400052
:104EF000019908800198007802999DF80320531CBD
:104F00008DF80330885402989DF803104A1C8DF8E0
:104F1000032003224254FFE703980078002814D0AE
:104F2000FFE70398411C0391007802999DF8032044
:104F3000531C8DF80330885402989DF803104A1CC6
:104F40008DF8032000224254E6E7FFE704B080BD5D
:104F500083B002900020019002980328009010D89E
:104F60000099DFE801F00205080B002001900BE03A
:104F70000220019008E00120019005E0022001904C
:104F800002E002200190FFE7019803B070470000A3
:104F900080B584B01346029001918DF803200298E9
:104FA000002803D1FFE70220039021E00298D0F807
:104FB000B402002805D0FFE702980021C0F8B4121F
:104FC000FFE70198002805D0FFE701980299C1F892
:104FD000B002FFE70298012180F89C129DF80300BF
:104FE00002990870029800F08DF900210391FFE703
:104FF000039804B080BD000080B586B00A460590D5
:105000008DF813100020039002900598D0F8C0028C
:105010009DF813100192FCF7B9F903900398FFF77C
:1050200097FF0290029806B080BD000080B586B060
:105030000A4605908DF81310002003900290059801
:10504000D0F8C0029DF813100192FCF74DF90390BF
:105050000398FFF77DFF0290029806B080BD000024
:1050600080B58CB00B460A908DF8271008929DF8F9
:105070002700002840F08F80FFE70A98143007903F
:105080000A98D0F89402022864D1FFE70798C16813
:105090000069814215D9FFE70798C1680269891A3A
:1050A000C1600A980899079A9289FFF7A3FB0A99A9
:1050B00000220690084611460592059B00F0DAF999
:1050C00047E0079881680069B1FBF0F202FB10101D
:1050D000002820D1FFE707988168006981421AD330
:1050E000FFE7079880680A99D1F89812884212D28F
:1050F000FFE70A9800210491049AFFF77BFB0A99C5
:10510000049AC1F898220A99039008461146049B14
:1051100000F0B0F91CE00A98D0F8B402C06800288A
:105120000CD0FFE70A9890F89C02032806D1FFE70D
:105130000A98D0F8B412C9688847FFE70A98802116
:1051400000F096FA0A9902900846FFF7ABFBFFE7DA
:10515000FFE711E00A98D0F89402042806D0FFE790
:105160000A98D0F89402002805D1FFE70A98802118
:1051700000F07EFAFFE7FFE70A9890F8A002012806
:1051800008D1FFE70A9800F00BFB0A99002281F88A
:10519000A022FFE71BE00A98D0F8B402406900287B
:1051A00011D0FFE70A9890F89C0203280BD1FFE783
:1051B0000A98D0F8B41249699DF827200191114648
:1051C000019A904702E002200B9003E0FFE70020E5
:1051D0000B90FFE70B980CB080BD000080B58AB043
:1051E0000B4608908DF81F1006929DF81F000028AE
:1051F00056D1FFE7089800F5AA7005900898D0F8F6
:10520000940203283CD1FFE70598C16800698142F8
:105210001ED9FFE70598C1680269891AC16008981C
:105220000699059AD368126993420490039104D2B7
:10523000FFE70598C068029003E0059800690290B6
:10524000FFE7029882B204980399FFF7B7FA16E0D5
:105250000898D0F8B402006900280CD0FFE708983D
:1052600090F89C02032806D1FFE70898D0F8B41202
:1052700009698847FFE70898FFF750FBFFE70EE052
:105280000898D0F89402052808D1FFE70898002173
:10529000C0F89412089800F0EBF9FFE7FFE71BE075
:1052A0000898D0F8B4028069002811D0FFE7089868
:1052B00090F89C0203280BD1FFE70898D0F8B412AD
:1052C00089699DF81F2001911146019A904702E0DB
:1052D0000220099003E0FFE700200990FFE709980A
:1052E0000AB080BD80B584B00A4603908DF80B10DB
:1052F0000398D0F8C0029DF80B100192FCF750FC07
:1053000004B080BD80B588B00790079841F2B40121
:10531000C2F20001C1F8EC020798C0F8C01245F6CD
:105320000040C4F200000860082048600220886045
:1053300000208861C86108620846FCF7AFFE0028BB
:1053400003D0FFE7FAF7A8FFFFE70798D0F8C002FD
:10535000002118230691069AFBF740FF0799D1F820
:10536000C01280225823059008461146069AFBF782
:1053700035FF0799D1F8C0128122C0230490084656
:105380001146069AFBF72AFF0799D1F8C0120122AD
:105390004FF48873039008461146069AFBF71EFFE8
:1053A0000799D1F8C01282224FF480730290084608
:1053B0001146069AFBF712FF06990190084608B0BD
:1053C00080BD000084B00A4602908DF80710029854
:1053D000D0F8C00200909DF80700000600280ED506
:1053E000FFE700989DF8071001F07F0101EB8101B4
:1053F00000EBC10090F82A008DF80F000DE0009836
:105400009DF8071001F07F0101EB810100EBC10065
:1054100090F86A018DF80F00FFE79DF80F0004B0C7
:105420007047000010B588B09C4696460C46079021
:105430008DF81B108DF81A20ADF81830002005905B
:1054400004900798D0F8C0029DF81B10BDF81820F2
:105450009DF81A30CDF80CC0CDF808E00194FCF7A7
:10546000B1FB05900598FFF773FD0490049808B010
:1054700010BD000080B588B09C468E4607908DF820
:105480001B100592ADF8123000200390029007988F
:10549000D0F8C0029DF81B10059ABDF81230CDF867
:1054A00004C0CDF800E0FCF701FC03900398FFF77F
:1054B0004FFD0290029808B080BD000080B586B014
:1054C00005900598002140220491049B03921A46FE
:1054D000039BFFF7A7FF05990122C1F85821059901
:1054E000039BC1F8643105994FF0800C0290084687
:1054F0006146DDF810C001926246FFF793FF0599FF
:10550000019A8A610599039B4B62059981F89C2257
:105510000599DDF810C0C1F894C20599C1F804C01E
:105520000599C1F8A4C20599D1F8B81200290AD08A
:10553000FFE70598D0F8B412496802790091114646
:10554000009A9047FFE7002006B080BD81B0009030
:10555000009890F89C02042806D1FFE7009890F884
:105560009D1280F89C12FFE7002001B070470000F8
:1055700080B582B00190019890F89C0203280ED16A
:10558000FFE70198D0F8B402C069002806D0FFE711
:105590000198D0F8B412C9698847FFE7FFE70020F7
:1055A00002B080BD82B0019000910098019908611D
:1055B000002002B07047000080B586B00A46059012
:1055C0008DF813100020039002900598D0F8C002C7
:1055D0009DF813100192FCF7D7FE03900398FFF794
:1055E000B7FC0290029806B080BD000080B584B080
:1055F00003900291039800F52A70029900F098F840
:1056000003980121C0F894120398B0F8AE12C0F8C4
:105610009812039890F8A80200F01F000146002895
:10562000019108D0FFE7019801280AD0FFE701980F
:1056300002280CD011E0039800F52A7100F0ECF973
:1056400013E0039800F52A7100F0F4FB0DE00398D5
:1056500000F52A7100F040FA07E0039890F8A812CC
:1056600001F0800100F004F8FFE7002004B080BDE5
:1056700080B586B00A4605908DF81310002003907F
:1056800002900598D0F8C0029DF813100192FCF723
:1056900047FB03900398FFF75BFC0290029806B06B
:1056A00080BD000080B584B003900020029001907E
:1056B0000398D0F8C002FCF7A5FE02900298FFF70D
:1056C00047FC0190019804B080BD000081B00090BB
:1056D000009890F89C1280F89D120098042180F8A0
:1056E0009C12002001B0704780B588B09C468E4661
:1056F00007908DF81B100592ADF812300020039032
:1057000002900798D0F8C0029DF81B10059ABDF8CA
:105710001230CDF804C0CDF800E0FCF771FB039027
:105720000398FFF715FC0290029808B080BD0000B6
:1057300082B001900091009800780199087000985B
:1057400040780199487000988178C07841EA00203B
:105750000199488000980179407941EA0020019937
:10576000888000988179C07941EA00200199C88039
:1057700002B0704783B00290019100200090019820
:10578000002807D0FFE701980299C1F8B402002071
:10579000009002E002200090FFE7009803B07047FD
:1057A00081B00090002001B07047000080B584B047
:1057B000039002910298808800283BD1FFE702986D
:1057C000C088002836D1FFE7029840887F2831D86A
:1057D000FFE70298807800F07F008DF807000398BB
:1057E00090F89C02032805D1FFE703980299FFF780
:1057F0001DF81EE09DF80700039981F89E020398AA
:105800009DF80710FFF7D8FE039900900846FFF7B0
:1058100085F89DF80710002905D0FFE703980221BD
:1058200080F89C1204E00398012180F89C12FFE7A5
:10583000FFE704E003980299FEF7F8FFFFE704B0E2
:1058400080BD000080B584B00A4603908DF80B102F
:10585000022001900398D0F8B402002811D0FFE78D
:105860000398D0F8B41209689DF80B2000911146F6
:10587000009A9047002803D1FFE700200190FFE73E
:10588000FFE7019804B080BD80B588B0079006910D
:105890000698807840F28011C2F200010870087802
:1058A000022805DBFFE707980699FEF7BFFF91E0A6
:1058B000079890F89C0201460228059104D0FFE762
:1058C000059803282BD077E040F28010C2F2000048
:1058D000007800281ED0FFE740F28010C2F20000DE
:1058E0000178079A51600799032281F89C22079951
:1058F0000078049008460499FFF7A4FF022805D118
:10590000FFE707980699FEF791FF63E00798FFF716
:1059100005F803E00798FFF701F8FFE759E040F2C8
:105920008010C2F200000078002818D1FFE7079825
:10593000022180F89C1240F28010C2F2000001782F
:10594000079A516007990078039008460399FEF77B
:10595000FFFE079902900846FEF7E0FF2BE040F2B9
:105960008010C2F2000000780799496888421DD073
:10597000FFE707980179FEF7EBFE40F28011C2F2D3
:1059800000010A78079B5A60079A0978019010462F
:10599000FFF758FF022805D1FFE707980699FEF7A1
:1059A00045FF17E00798FEF7B9FF03E00798FEF7F9
:1059B000B5FFFFE7FFE70CE007980699FEF736FF13
:1059C000079840F28011C2F200010978FEF7C0FE8C
:1059D000FFE7FFE708B080BD80B582B0019000917D
:1059E00000984088012808D1FFE701980121C0F8FC
:1059F000A4120198FEF792FFFFE702B080BD0000FD
:105A000080B582B001900198FFF74CFE0021009014
:105A1000084602B080BD000080B586B005900491B4
:105A2000002003900498007800F0600001460028F0
:105A3000029112D0FFE70298202804D0FFE70298D5
:105A4000402841D1FFE70598D0F8B4128968049A3C
:105A500001911146019A90473BE004984078014635
:105A6000092800912AD80099DFE801F01923281E9F
:105A7000280A0528140F05980499FFF743F822E037
:105A800005980499FFF792FE1DE005980499FFF729
:105A9000FBFE18E005980499FFF702F813E005985B
:105AA0000499FFF7E1F90EE005980499FFF794FFD8
:105AB00009E005980499FEF761FE04E00598049951
:105AC000FEF7B4FEFFE704E005980499FEF7AEFE8A
:105AD000FFE7039806B080BD80B592B010900F919B
